{
  "contractName": "HibernationCalculator",
  "abi": [
    {
      "inputs": [],
      "stateMutability": "nonpayable",
      "type": "constructor"
    },
    {
      "anonymous": false,
      "inputs": [
        {
          "indexed": false,
          "internalType": "string",
          "name": "uuid",
          "type": "string"
        },
        {
          "indexed": false,
          "internalType": "uint256",
          "name": "shellLength",
          "type": "uint256"
        },
        {
          "indexed": false,
          "internalType": "uint256",
          "name": "weight",
          "type": "uint256"
        },
        {
          "indexed": false,
          "internalType": "uint256",
          "name": "result",
          "type": "uint256"
        },
        {
          "indexed": false,
          "internalType": "uint256",
          "name": "min",
          "type": "uint256"
        },
        {
          "indexed": false,
          "internalType": "uint256",
          "name": "avg",
          "type": "uint256"
        },
        {
          "indexed": false,
          "internalType": "uint256",
          "name": "max",
          "type": "uint256"
        }
      ],
      "name": "AnimalAdded",
      "type": "event"
    },
    {
      "anonymous": false,
      "inputs": [
        {
          "indexed": false,
          "internalType": "string",
          "name": "uuid",
          "type": "string"
        },
        {
          "indexed": false,
          "internalType": "bool",
          "name": "deleted",
          "type": "bool"
        }
      ],
      "name": "AnimalDeleted",
      "type": "event"
    },
    {
      "anonymous": false,
      "inputs": [
        {
          "indexed": false,
          "internalType": "bool",
          "name": "deleted",
          "type": "bool"
        }
      ],
      "name": "AnimalsCleared",
      "type": "event"
    },
    {
      "inputs": [],
      "name": "animalCount",
      "outputs": [
        {
          "internalType": "uint256",
          "name": "",
          "type": "uint256"
        }
      ],
      "stateMutability": "view",
      "type": "function",
      "constant": true
    },
    {
      "inputs": [
        {
          "internalType": "string",
          "name": "uuid",
          "type": "string"
        },
        {
          "internalType": "uint256",
          "name": "shellLength",
          "type": "uint256"
        },
        {
          "internalType": "uint256",
          "name": "weight",
          "type": "uint256"
        },
        {
          "internalType": "uint256",
          "name": "result",
          "type": "uint256"
        },
        {
          "internalType": "uint256",
          "name": "min",
          "type": "uint256"
        },
        {
          "internalType": "uint256",
          "name": "avg",
          "type": "uint256"
        },
        {
          "internalType": "uint256",
          "name": "max",
          "type": "uint256"
        }
      ],
      "name": "addAnimal",
      "outputs": [],
      "stateMutability": "nonpayable",
      "type": "function"
    },
    {
      "inputs": [
        {
          "internalType": "string",
          "name": "uuid",
          "type": "string"
        }
      ],
      "name": "deleteAnimalByUUID",
      "outputs": [],
      "stateMutability": "nonpayable",
      "type": "function"
    },
    {
      "inputs": [],
      "name": "clearAnimals",
      "outputs": [],
      "stateMutability": "nonpayable",
      "type": "function"
    },
    {
      "inputs": [],
      "name": "getAnimals",
      "outputs": [
        {
          "components": [
            {
              "internalType": "string",
              "name": "uuid",
              "type": "string"
            },
            {
              "internalType": "uint256",
              "name": "shellLength",
              "type": "uint256"
            },
            {
              "internalType": "uint256",
              "name": "weight",
              "type": "uint256"
            },
            {
              "internalType": "uint256",
              "name": "result",
              "type": "uint256"
            },
            {
              "internalType": "uint256",
              "name": "min",
              "type": "uint256"
            },
            {
              "internalType": "uint256",
              "name": "avg",
              "type": "uint256"
            },
            {
              "internalType": "uint256",
              "name": "max",
              "type": "uint256"
            }
          ],
          "internalType": "struct HibernationCalculator.HibernationInformation[]",
          "name": "",
          "type": "tuple[]"
        }
      ],
      "stateMutability": "view",
      "type": "function",
      "constant": true
    },
    {
      "inputs": [],
      "name": "getAnimalCount",
      "outputs": [
        {
          "internalType": "uint256",
          "name": "",
          "type": "uint256"
        }
      ],
      "stateMutability": "view",
      "type": "function",
      "constant": true
    },
    {
      "inputs": [
        {
          "internalType": "string",
          "name": "uuid",
          "type": "string"
        }
      ],
      "name": "getAnimalByUUID",
      "outputs": [
        {
          "components": [
            {
              "internalType": "string",
              "name": "uuid",
              "type": "string"
            },
            {
              "internalType": "uint256",
              "name": "shellLength",
              "type": "uint256"
            },
            {
              "internalType": "uint256",
              "name": "weight",
              "type": "uint256"
            },
            {
              "internalType": "uint256",
              "name": "result",
              "type": "uint256"
            },
            {
              "internalType": "uint256",
              "name": "min",
              "type": "uint256"
            },
            {
              "internalType": "uint256",
              "name": "avg",
              "type": "uint256"
            },
            {
              "internalType": "uint256",
              "name": "max",
              "type": "uint256"
            }
          ],
          "internalType": "struct HibernationCalculator.HibernationInformation",
          "name": "",
          "type": "tuple"
        }
      ],
      "stateMutability": "view",
      "type": "function",
      "constant": true
    }
  ],
  "bytecode": "0x6080604052600080553480156200001557600080fd5b50620000266200002c60201b60201c565b620005c5565b6200008860405180606001604052806024815260200162001a0b6024913967a688906bd8b000006798a7d9b8314c00006003680df7b919de9199000068107572f3e6651f800068130014d400d1c300006200008a60201b60201c565b565b60006040518060e00160405280898152602001888152602001878152602001868152602001858152602001848152602001838152509050620000d388826200012260201b60201c565b7f69972a4399cac0d18db64f54cd79b3baaf30b389ed0baee782ccb90456d026a38888888888888860405162000110979695949392919062000481565b60405180910390a15050505050505050565b60016003018260405162000137919062000547565b908152602001604051809103902060009054906101000a900460ff1615620001e0578060018001836040516200016e919062000547565b908152602001604051809103902060008201518160000190805190602001906200019a92919062000312565b506020820151816001015560408201518160020155606082015181600301556080820151816004015560a0820151816005015560c082015181600601559050506200030e565b60018060030183604051620001f6919062000547565b908152602001604051809103902060006101000a81548160ff02191690831515021790555080600180018360405162000230919062000547565b908152602001604051809103902060008201518160000190805190602001906200025c92919062000312565b506020820151816001015560408201518160020155606082015181600301556080820151816004015560a0820151816005015560c08201518160060155905050600160000180549050600160020183604051620002ba919062000547565b9081526020016040518091039020819055506001600001829080600181540180825580915050600190039060005260206000200160009091909190915090805190602001906200030c92919062000312565b505b5050565b82805462000320906200058f565b90600052602060002090601f01602090048101928262000344576000855562000390565b82601f106200035f57805160ff191683800117855562000390565b8280016001018555821562000390579182015b828111156200038f57825182559160200191906001019062000372565b5b5090506200039f9190620003a3565b5090565b5b80821115620003be576000816000905550600101620003a4565b5090565b600081519050919050565b600082825260208201905092915050565b60005b83811015620003fe578082015181840152602081019050620003e1565b838111156200040e576000848401525b50505050565b6000601f19601f8301169050919050565b60006200043282620003c2565b6200043e8185620003cd565b935062000450818560208601620003de565b6200045b8162000414565b840191505092915050565b6000819050919050565b6200047b8162000466565b82525050565b600060e08201905081810360008301526200049d818a62000425565b9050620004ae602083018962000470565b620004bd604083018862000470565b620004cc606083018762000470565b620004db608083018662000470565b620004ea60a083018562000470565b620004f960c083018462000470565b98975050505050505050565b600081905092915050565b60006200051d82620003c2565b62000529818562000505565b93506200053b818560208601620003de565b80840191505092915050565b600062000555828462000510565b915081905092915050565b7f4e487b7100000000000000000000000000000000000000000000000000000000600052602260045260246000fd5b60006002820490506001821680620005a857607f821691505b60208210811415620005bf57620005be62000560565b5b50919050565b61143680620005d56000396000f3fe608060405234801561001057600080fd5b506004361061007d5760003560e01c806356e915c91161005b57806356e915c9146100ec57806366634a161461010a5780637acdde6d14610128578063bd3d17af146101325761007d565b806307a5bdb31461008257806327bd616e146100b257806343ccf5b2146100ce575b600080fd5b61009c60048036038101906100979190610ce0565b61014e565b6040516100a99190610e66565b60405180910390f35b6100cc60048036038101906100c79190610eb4565b610166565b005b6100d66101f4565b6040516100e39190610f81565b60405180910390f35b6100f46101fa565b60405161010191906110fa565b60405180910390f35b610112610360565b60405161011f9190610f81565b60405180910390f35b61013061036f565b005b61014c60048036038101906101479190610ce0565b610482565b005b610156610a66565b61015f8261048e565b9050919050565b60006040518060e001604052808981526020018881526020018781526020018681526020018581526020018481526020018381525090506101a78882610596565b7f69972a4399cac0d18db64f54cd79b3baaf30b389ed0baee782ccb90456d026a3888888888888886040516101e29796959493929190611166565b60405180910390a15050505050505050565b60005481565b6060600060016000018054905067ffffffffffffffff8111156102205761021f610bb5565b5b60405190808252806020026020018201604052801561025957816020015b610246610a66565b81526020019060019003908161023e5790505b50905060005b6001600001805490508110156103585760006103236001600001838154811061028b5761028a6111dc565b5b9060005260206000200180546102a09061123a565b80601f01602080910402602001604051908101604052809291908181526020018280546102cc9061123a565b80156103195780601f106102ee57610100808354040283529160200191610319565b820191906000526020600020905b8154815290600101906020018083116102fc57829003601f168201915b505050505061048e565b905080838381518110610339576103386111dc565b5b60200260200101819052505080806103509061129b565b91505061025f565b508091505090565b600061036a610774565b905090565b60005b600160000180549050811015610447576104346001600001828154811061039c5761039b6111dc565b5b9060005260206000200180546103b19061123a565b80601f01602080910402602001604051908101604052809291908181526020018280546103dd9061123a565b801561042a5780601f106103ff5761010080835404028352916020019161042a565b820191906000526020600020905b81548152906001019060200180831161040d57829003601f168201915b5050505050610784565b808061043f9061129b565b915050610372565b507f3027fa5f89b510077bccd0c31dde078d30369edaeeca6c93c24d6758cfb7fc0f600160405161047891906112ff565b60405180910390a1565b61048b81610784565b50565b610496610a66565b60018001826040516104a89190611356565b90815260200160405180910390206040518060e00160405290816000820180546104d19061123a565b80601f01602080910402602001604051908101604052809291908181526020018280546104fd9061123a565b801561054a5780601f1061051f5761010080835404028352916020019161054a565b820191906000526020600020905b81548152906001019060200180831161052d57829003601f168201915b5050505050815260200160018201548152602001600282015481526020016003820154815260200160048201548152602001600582015481526020016006820154815250509050919050565b6001600301826040516105a99190611356565b908152602001604051809103902060009054906101000a900460ff161561064c578060018001836040516105dd9190611356565b90815260200160405180910390206000820151816000019080519060200190610607929190610aa3565b506020820151816001015560408201518160020155606082015181600301556080820151816004015560a0820151816005015560c08201518160060155905050610770565b600180600301836040516106609190611356565b908152602001604051809103902060006101000a81548160ff0219169083151502179055508060018001836040516106989190611356565b908152602001604051809103902060008201518160000190805190602001906106c2929190610aa3565b506020820151816001015560408201518160020155606082015181600301556080820151816004015560a0820151816005015560c0820151816006015590505060016000018054905060016002018360405161071e9190611356565b90815260200160405180910390208190555060016000018290806001815401808255809150506001900390600052602060002001600090919091909150908051906020019061076e929190610aa3565b505b5050565b6000600160000180549050905090565b6001600301816040516107979190611356565b908152602001604051809103902060009054906101000a900460ff166107f2577f12aab090ce41e0d01aa3b62d0213076f4df2da9c040f57e69924f3ccdc8ff2fb8160006040516107e992919061136d565b60405180910390a15b6001600301816040516108059190611356565b908152602001604051809103902060006101000a81549060ff021916905560018001816040516108359190611356565b9081526020016040518091039020600080820160006108549190610b29565b6001820160009055600282016000905560038201600090556004820160009055600582016000905560068201600090555050600060016002018260405161089b9190611356565b90815260200160405180910390205490506000600180600001805490506108c2919061139d565b90506000600160000182815481106108dd576108dc6111dc565b5b9060005260206000200180546108f29061123a565b80601f016020809104026020016040519081016040528092919081815260200182805461091e9061123a565b801561096b5780601f106109405761010080835404028352916020019161096b565b820191906000526020600020905b81548152906001019060200180831161094e57829003601f168201915b50505050509050826001600201826040516109869190611356565b9081526020016040518091039020819055506001600201846040516109ab9190611356565b90815260200160405180910390206000905580600160000184815481106109d5576109d46111dc565b5b9060005260206000200190805190602001906109f2929190610aa3565b506001600001805480610a0857610a076113d1565b5b600190038181906000526020600020016000610a249190610b29565b90557f12aab090ce41e0d01aa3b62d0213076f4df2da9c040f57e69924f3ccdc8ff2fb846001604051610a5892919061136d565b60405180910390a150505050565b6040518060e00160405280606081526020016000815260200160008152602001600081526020016000815260200160008152602001600081525090565b828054610aaf9061123a565b90600052602060002090601f016020900481019282610ad15760008555610b18565b82601f10610aea57805160ff1916838001178555610b18565b82800160010185558215610b18579182015b82811115610b17578251825591602001919060010190610afc565b5b509050610b259190610b69565b5090565b508054610b359061123a565b6000825580601f10610b475750610b66565b601f016020900490600052602060002090810190610b659190610b69565b5b50565b5b80821115610b82576000816000905550600101610b6a565b5090565b6000604051905090565b600080fd5b600080fd5b600080fd5b600080fd5b6000601f19601f8301169050919050565b7f4e487b7100000000000000000000000000000000000000000000000000000000600052604160045260246000fd5b610bed82610ba4565b810181811067ffffffffffffffff82111715610c0c57610c0b610bb5565b5b80604052505050565b6000610c1f610b86565b9050610c2b8282610be4565b919050565b600067ffffffffffffffff821115610c4b57610c4a610bb5565b5b610c5482610ba4565b9050602081019050919050565b82818337600083830152505050565b6000610c83610c7e84610c30565b610c15565b905082815260208101848484011115610c9f57610c9e610b9f565b5b610caa848285610c61565b509392505050565b600082601f830112610cc757610cc6610b9a565b5b8135610cd7848260208601610c70565b91505092915050565b600060208284031215610cf657610cf5610b90565b5b600082013567ffffffffffffffff811115610d1457610d13610b95565b5b610d2084828501610cb2565b91505092915050565b600081519050919050565b600082825260208201905092915050565b60005b83811015610d63578082015181840152602081019050610d48565b83811115610d72576000848401525b50505050565b6000610d8382610d29565b610d8d8185610d34565b9350610d9d818560208601610d45565b610da681610ba4565b840191505092915050565b6000819050919050565b610dc481610db1565b82525050565b600060e0830160008301518482036000860152610de78282610d78565b9150506020830151610dfc6020860182610dbb565b506040830151610e0f6040860182610dbb565b506060830151610e226060860182610dbb565b506080830151610e356080860182610dbb565b5060a0830151610e4860a0860182610dbb565b5060c0830151610e5b60c0860182610dbb565b508091505092915050565b60006020820190508181036000830152610e808184610dca565b905092915050565b610e9181610db1565b8114610e9c57600080fd5b50565b600081359050610eae81610e88565b92915050565b600080600080600080600060e0888a031215610ed357610ed2610b90565b5b600088013567ffffffffffffffff811115610ef157610ef0610b95565b5b610efd8a828b01610cb2565b9750506020610f0e8a828b01610e9f565b9650506040610f1f8a828b01610e9f565b9550506060610f308a828b01610e9f565b9450506080610f418a828b01610e9f565b93505060a0610f528a828b01610e9f565b92505060c0610f638a828b01610e9f565b91505092959891949750929550565b610f7b81610db1565b82525050565b6000602082019050610f966000830184610f72565b92915050565b600081519050919050565b600082825260208201905092915050565b6000819050602082019050919050565b600060e0830160008301518482036000860152610fe58282610d78565b9150506020830151610ffa6020860182610dbb565b50604083015161100d6040860182610dbb565b5060608301516110206060860182610dbb565b5060808301516110336080860182610dbb565b5060a083015161104660a0860182610dbb565b5060c083015161105960c0860182610dbb565b508091505092915050565b60006110708383610fc8565b905092915050565b6000602082019050919050565b600061109082610f9c565b61109a8185610fa7565b9350836020820285016110ac85610fb8565b8060005b858110156110e857848403895281516110c98582611064565b94506110d483611078565b925060208a019950506001810190506110b0565b50829750879550505050505092915050565b600060208201905081810360008301526111148184611085565b905092915050565b600082825260208201905092915050565b600061113882610d29565b611142818561111c565b9350611152818560208601610d45565b61115b81610ba4565b840191505092915050565b600060e0820190508181036000830152611180818a61112d565b905061118f6020830189610f72565b61119c6040830188610f72565b6111a96060830187610f72565b6111b66080830186610f72565b6111c360a0830185610f72565b6111d060c0830184610f72565b98975050505050505050565b7f4e487b7100000000000000000000000000000000000000000000000000000000600052603260045260246000fd5b7f4e487b7100000000000000000000000000000000000000000000000000000000600052602260045260246000fd5b6000600282049050600182168061125257607f821691505b602082108114156112665761126561120b565b5b50919050565b7f4e487b7100000000000000000000000000000000000000000000000000000000600052601160045260246000fd5b60006112a682610db1565b91507fffffffffffffffffffffffffffffffffffffffffffffffffffffffffffffffff8214156112d9576112d861126c565b5b600182019050919050565b60008115159050919050565b6112f9816112e4565b82525050565b600060208201905061131460008301846112f0565b92915050565b600081905092915050565b600061133082610d29565b61133a818561131a565b935061134a818560208601610d45565b80840191505092915050565b60006113628284611325565b915081905092915050565b60006040820190508181036000830152611387818561112d565b905061139660208301846112f0565b9392505050565b60006113a882610db1565b91506113b383610db1565b9250828210156113c6576113c561126c565b5b828203905092915050565b7f4e487b7100000000000000000000000000000000000000000000000000000000600052603160045260246000fdfea2646970667358221220588de4227f80a91d4425f90f3df6e07e7f471e62be0cbd332d299328bc2d802964736f6c634300080a003339323365316135372d343030302d346362322d383836392d636233376537376133353764",
  "immutableReferences": {},
  "source": "// SPDX-License-Identifier: MIT\r\npragma solidity ^0.8.10;\r\n\r\ncontract HibernationCalculator {\r\n    \r\n    uint public animalCount = 0;\r\n\r\n    struct HibernationInformation {\r\n        string uuid;\r\n        uint shellLength;\r\n        uint weight;\r\n        uint result;\r\n        uint min;\r\n        uint avg;\r\n        uint max;\r\n    }\r\n\r\n    struct Map {\r\n        string[] keys;\r\n        mapping(string => HibernationInformation) values;\r\n        mapping(string => uint) indexOf;\r\n        mapping(string => bool) inserted;\r\n    }\r\n\r\n    event AnimalAdded(\r\n        string uuid,\r\n        uint shellLength,\r\n        uint weight,\r\n        uint result,\r\n        uint min,\r\n        uint avg,\r\n        uint max\r\n    );\r\n\r\n    event AnimalDeleted(\r\n        string uuid,\r\n        bool deleted\r\n    );\r\n\r\n    event AnimalsCleared(\r\n        bool deleted\r\n    );\r\n\r\n    //mapping(string => HibernationInformation) public animals;\r\n\r\n    Map private animals;\r\n\r\n    //string[] public animalKeysArray;\r\n\r\n    constructor() {\r\n        initializeContract();\r\n    }\r\n\r\n    function addAnimal(\r\n        string memory uuid,\r\n        uint shellLength,\r\n        uint weight,\r\n        uint result,\r\n        uint min,\r\n        uint avg,\r\n        uint max\r\n    ) public {\r\n        HibernationInformation memory hibernationData = HibernationInformation(\r\n            uuid,\r\n            shellLength,\r\n            weight,\r\n            result,\r\n            min,\r\n            avg,\r\n            max\r\n        );\r\n\r\n        set(uuid, hibernationData);\r\n        emit AnimalAdded(uuid, shellLength, weight, result, min, avg, max);\r\n    }\r\n\r\n    function deleteAnimalByUUID(string memory uuid) public {\r\n        remove(uuid);\r\n    }\r\n\r\n    function clearAnimals() public {\r\n        for (uint i = 0; i < animals.keys.length; i++) {\r\n            remove(animals.keys[i]);\r\n        }\r\n        emit AnimalsCleared(true);\r\n    }\r\n\r\n    function getAnimals() public view returns (HibernationInformation[] memory) {\r\n        HibernationInformation[] memory animalArray = new HibernationInformation[](animals.keys.length);\r\n\r\n        for (uint i = 0; i < animals.keys.length; i++) {\r\n            HibernationInformation memory animal = get(animals.keys[i]);\r\n            animalArray[i] = animal;\r\n        }\r\n        return animalArray;\r\n    }\r\n\r\n    function getAnimalCount() public view returns (uint) {\r\n        return size();\r\n    }\r\n\r\n    function getAnimalByUUID(string memory uuid) public view returns (HibernationInformation memory) {\r\n        return get(uuid);\r\n    }\r\n\r\n    function get(string memory key) private view returns (HibernationInformation memory) {\r\n        return animals.values[key];\r\n    }\r\n\r\n    function getKeyAtIndex(uint index) private view returns (string memory) {\r\n        return animals.keys[index];\r\n    }\r\n\r\n    function size() private view returns (uint) {\r\n        return animals.keys.length;\r\n    }\r\n\r\n    function set(string memory key, HibernationInformation memory val) private {\r\n        if (animals.inserted[key]) {\r\n            animals.values[key] = val;\r\n        } else {\r\n            animals.inserted[key] = true;\r\n            animals.values[key] = val;\r\n            animals.indexOf[key] = animals.keys.length;\r\n            animals.keys.push(key);\r\n        }\r\n    }\r\n\r\n    function remove(string memory key) private {\r\n        if (!animals.inserted[key]) {\r\n            emit AnimalDeleted(key, false);\r\n        }\r\n\r\n        delete animals.inserted[key];\r\n        delete animals.values[key];\r\n\r\n        uint index = animals.indexOf[key];\r\n        uint lastIndex = animals.keys.length - 1;\r\n        string memory lastKey = animals.keys[lastIndex];\r\n\r\n        animals.indexOf[lastKey] = index;\r\n        delete animals.indexOf[key];\r\n\r\n        animals.keys[index] = lastKey;\r\n        animals.keys.pop();\r\n\r\n        emit AnimalDeleted(key, true);\r\n    }\r\n\r\n    function initializeContract() private {\r\n        addAnimal(\r\n            \"923e1a57-4000-4cb2-8869-cb37e77a357d\",\r\n            12000000000000000000,\r\n            11000000000000000000,\r\n            3,\r\n            257658000000000000000,\r\n            303611000000000000000,\r\n            350494000000000000000\r\n        );\r\n    }\r\n}",
  "sourcePath": "C:\\Users\\Rares Zaharescu\\Documents\\Workspace\\Projects\\hibernator-calculator-mbn-tech-vue\\blockchain\\contracts\\HibernationCalculator.sol",
  "compiler": {
    "name": "solc",
    "version": "0.8.10+commit.fc410830.Emscripten.clang"
  },
  "schemaVersion": "3.4.3",
  "updatedAt": "2021-12-22T16:43:17.998Z",
  "networkType": "ethereum",
  "devdoc": {
    "kind": "dev",
    "methods": {},
    "version": 1
  },
  "userdoc": {
    "kind": "user",
    "methods": {},
    "version": 1
  }
}