{
  "contractName": "HibernationCalculator",
  "abi": [
    {
      "inputs": [],
      "stateMutability": "nonpayable",
      "type": "constructor"
    },
    {
      "anonymous": false,
      "inputs": [
        {
          "indexed": false,
          "internalType": "string",
          "name": "uuid",
          "type": "string"
        },
        {
          "indexed": false,
          "internalType": "uint256",
          "name": "shellLength",
          "type": "uint256"
        },
        {
          "indexed": false,
          "internalType": "uint256",
          "name": "weight",
          "type": "uint256"
        },
        {
          "indexed": false,
          "internalType": "uint256",
          "name": "result",
          "type": "uint256"
        },
        {
          "indexed": false,
          "internalType": "uint256",
          "name": "min",
          "type": "uint256"
        },
        {
          "indexed": false,
          "internalType": "uint256",
          "name": "avg",
          "type": "uint256"
        },
        {
          "indexed": false,
          "internalType": "uint256",
          "name": "max",
          "type": "uint256"
        }
      ],
      "name": "AnimalAdded",
      "type": "event"
    },
    {
      "anonymous": false,
      "inputs": [
        {
          "indexed": false,
          "internalType": "string",
          "name": "uuid",
          "type": "string"
        },
        {
          "indexed": false,
          "internalType": "bool",
          "name": "deleted",
          "type": "bool"
        }
      ],
      "name": "AnimalDeleted",
      "type": "event"
    },
    {
      "anonymous": false,
      "inputs": [
        {
          "indexed": false,
          "internalType": "bool",
          "name": "deleted",
          "type": "bool"
        }
      ],
      "name": "AnimalsCleared",
      "type": "event"
    },
    {
      "inputs": [],
      "name": "animalCount",
      "outputs": [
        {
          "internalType": "uint256",
          "name": "",
          "type": "uint256"
        }
      ],
      "stateMutability": "view",
      "type": "function",
      "constant": true
    },
    {
      "inputs": [
        {
          "internalType": "string",
          "name": "uuid",
          "type": "string"
        },
        {
          "internalType": "uint256",
          "name": "shellLength",
          "type": "uint256"
        },
        {
          "internalType": "uint256",
          "name": "weight",
          "type": "uint256"
        },
        {
          "internalType": "uint256",
          "name": "result",
          "type": "uint256"
        },
        {
          "internalType": "uint256",
          "name": "min",
          "type": "uint256"
        },
        {
          "internalType": "uint256",
          "name": "avg",
          "type": "uint256"
        },
        {
          "internalType": "uint256",
          "name": "max",
          "type": "uint256"
        }
      ],
      "name": "addAnimal",
      "outputs": [],
      "stateMutability": "nonpayable",
      "type": "function"
    },
    {
      "inputs": [
        {
          "internalType": "string",
          "name": "uuid",
          "type": "string"
        }
      ],
      "name": "deleteAnimalByUUID",
      "outputs": [],
      "stateMutability": "nonpayable",
      "type": "function"
    },
    {
      "inputs": [],
      "name": "clearAnimals",
      "outputs": [],
      "stateMutability": "nonpayable",
      "type": "function"
    },
    {
      "inputs": [],
      "name": "getAnimals",
      "outputs": [
        {
          "components": [
            {
              "internalType": "string",
              "name": "uuid",
              "type": "string"
            },
            {
              "internalType": "uint256",
              "name": "shellLength",
              "type": "uint256"
            },
            {
              "internalType": "uint256",
              "name": "weight",
              "type": "uint256"
            },
            {
              "internalType": "uint256",
              "name": "result",
              "type": "uint256"
            },
            {
              "internalType": "uint256",
              "name": "min",
              "type": "uint256"
            },
            {
              "internalType": "uint256",
              "name": "avg",
              "type": "uint256"
            },
            {
              "internalType": "uint256",
              "name": "max",
              "type": "uint256"
            }
          ],
          "internalType": "struct HibernationCalculator.HibernationInformation[]",
          "name": "",
          "type": "tuple[]"
        }
      ],
      "stateMutability": "view",
      "type": "function",
      "constant": true
    },
    {
      "inputs": [],
      "name": "getAnimalUUIDs",
      "outputs": [
        {
          "internalType": "string[]",
          "name": "",
          "type": "string[]"
        }
      ],
      "stateMutability": "view",
      "type": "function",
      "constant": true
    },
    {
      "inputs": [],
      "name": "getAnimalCount",
      "outputs": [
        {
          "internalType": "uint256",
          "name": "",
          "type": "uint256"
        }
      ],
      "stateMutability": "view",
      "type": "function",
      "constant": true
    },
    {
      "inputs": [
        {
          "internalType": "string",
          "name": "uuid",
          "type": "string"
        }
      ],
      "name": "getAnimalByUUID",
      "outputs": [
        {
          "components": [
            {
              "internalType": "string",
              "name": "uuid",
              "type": "string"
            },
            {
              "internalType": "uint256",
              "name": "shellLength",
              "type": "uint256"
            },
            {
              "internalType": "uint256",
              "name": "weight",
              "type": "uint256"
            },
            {
              "internalType": "uint256",
              "name": "result",
              "type": "uint256"
            },
            {
              "internalType": "uint256",
              "name": "min",
              "type": "uint256"
            },
            {
              "internalType": "uint256",
              "name": "avg",
              "type": "uint256"
            },
            {
              "internalType": "uint256",
              "name": "max",
              "type": "uint256"
            }
          ],
          "internalType": "struct HibernationCalculator.HibernationInformation",
          "name": "",
          "type": "tuple"
        }
      ],
      "stateMutability": "view",
      "type": "function",
      "constant": true
    }
  ],
  "bytecode": "0x6080604052600080553480156200001557600080fd5b50620000266200002c60201b60201c565b620005c5565b6200008860405180606001604052806024815260200162001c3d6024913967a688906bd8b000006798a7d9b8314c00006003680df7b919de9199000068107572f3e6651f800068130014d400d1c300006200008a60201b60201c565b565b60006040518060e00160405280898152602001888152602001878152602001868152602001858152602001848152602001838152509050620000d388826200012260201b60201c565b7f69972a4399cac0d18db64f54cd79b3baaf30b389ed0baee782ccb90456d026a38888888888888860405162000110979695949392919062000481565b60405180910390a15050505050505050565b60016003018260405162000137919062000547565b908152602001604051809103902060009054906101000a900460ff1615620001e0578060018001836040516200016e919062000547565b908152602001604051809103902060008201518160000190805190602001906200019a92919062000312565b506020820151816001015560408201518160020155606082015181600301556080820151816004015560a0820151816005015560c082015181600601559050506200030e565b60018060030183604051620001f6919062000547565b908152602001604051809103902060006101000a81548160ff02191690831515021790555080600180018360405162000230919062000547565b908152602001604051809103902060008201518160000190805190602001906200025c92919062000312565b506020820151816001015560408201518160020155606082015181600301556080820151816004015560a0820151816005015560c08201518160060155905050600160000180549050600160020183604051620002ba919062000547565b9081526020016040518091039020819055506001600001829080600181540180825580915050600190039060005260206000200160009091909190915090805190602001906200030c92919062000312565b505b5050565b82805462000320906200058f565b90600052602060002090601f01602090048101928262000344576000855562000390565b82601f106200035f57805160ff191683800117855562000390565b8280016001018555821562000390579182015b828111156200038f57825182559160200191906001019062000372565b5b5090506200039f9190620003a3565b5090565b5b80821115620003be576000816000905550600101620003a4565b5090565b600081519050919050565b600082825260208201905092915050565b60005b83811015620003fe578082015181840152602081019050620003e1565b838111156200040e576000848401525b50505050565b6000601f19601f8301169050919050565b60006200043282620003c2565b6200043e8185620003cd565b935062000450818560208601620003de565b6200045b8162000414565b840191505092915050565b6000819050919050565b6200047b8162000466565b82525050565b600060e08201905081810360008301526200049d818a62000425565b9050620004ae602083018962000470565b620004bd604083018862000470565b620004cc606083018762000470565b620004db608083018662000470565b620004ea60a083018562000470565b620004f960c083018462000470565b98975050505050505050565b600081905092915050565b60006200051d82620003c2565b62000529818562000505565b93506200053b818560208601620003de565b80840191505092915050565b600062000555828462000510565b915081905092915050565b7f4e487b7100000000000000000000000000000000000000000000000000000000600052602260045260246000fd5b60006002820490506001821680620005a857607f821691505b60208210811415620005bf57620005be62000560565b5b50919050565b61166880620005d56000396000f3fe608060405234801561001057600080fd5b50600436106100885760003560e01c806356e915c91161005b57806356e915c91461011557806366634a16146101335780637acdde6d14610151578063bd3d17af1461015b57610088565b806307a5bdb31461008d57806327bd616e146100bd57806343ccf5b2146100d95780634c1d0af2146100f7575b600080fd5b6100a760048036038101906100a29190610e2e565b610177565b6040516100b49190610fb4565b60405180910390f35b6100d760048036038101906100d29190611002565b61018f565b005b6100e161021d565b6040516100ee91906110cf565b60405180910390f35b6100ff610223565b60405161010c91906111ac565b60405180910390f35b61011d6102ff565b60405161012a919061132c565b60405180910390f35b61013b610465565b60405161014891906110cf565b60405180910390f35b610159610474565b005b61017560048036038101906101709190610e2e565b6105cb565b005b61017f610bb4565b610188826105d7565b9050919050565b60006040518060e001604052808981526020018881526020018781526020018681526020018581526020018481526020018381525090506101d088826106df565b7f69972a4399cac0d18db64f54cd79b3baaf30b389ed0baee782ccb90456d026a38888888888888860405161020b9796959493929190611398565b60405180910390a15050505050505050565b60005481565b60606001600001805480602002602001604051908101604052809291908181526020016000905b828210156102f65783829060005260206000200180546102699061143d565b80601f01602080910402602001604051908101604052809291908181526020018280546102959061143d565b80156102e25780601f106102b7576101008083540402835291602001916102e2565b820191906000526020600020905b8154815290600101906020018083116102c557829003601f168201915b50505050508152602001906001019061024a565b50505050905090565b6060600060016000018054905067ffffffffffffffff81111561032557610324610d03565b5b60405190808252806020026020018201604052801561035e57816020015b61034b610bb4565b8152602001906001900390816103435790505b50905060005b60016000018054905081101561045d576000610428600160000183815481106103905761038f61146f565b5b9060005260206000200180546103a59061143d565b80601f01602080910402602001604051908101604052809291908181526020018280546103d19061143d565b801561041e5780601f106103f35761010080835404028352916020019161041e565b820191906000526020600020905b81548152906001019060200180831161040157829003601f168201915b50505050506105d7565b90508083838151811061043e5761043d61146f565b5b6020026020010181905250508080610455906114cd565b915050610364565b508091505090565b600061046f6108bd565b905090565b60006001600001805480602002602001604051908101604052809291908181526020016000905b828210156105475783829060005260206000200180546104ba9061143d565b80601f01602080910402602001604051908101604052809291908181526020018280546104e69061143d565b80156105335780601f1061050857610100808354040283529160200191610533565b820191906000526020600020905b81548152906001019060200180831161051657829003601f168201915b50505050508152602001906001019061049b565b50505050905060005b815181101561058f5761057c82828151811061056f5761056e61146f565b5b60200260200101516108cd565b8080610587906114cd565b915050610550565b507f3027fa5f89b510077bccd0c31dde078d30369edaeeca6c93c24d6758cfb7fc0f60016040516105c09190611531565b60405180910390a150565b6105d4816108cd565b50565b6105df610bb4565b60018001826040516105f19190611588565b90815260200160405180910390206040518060e001604052908160008201805461061a9061143d565b80601f01602080910402602001604051908101604052809291908181526020018280546106469061143d565b80156106935780601f1061066857610100808354040283529160200191610693565b820191906000526020600020905b81548152906001019060200180831161067657829003601f168201915b5050505050815260200160018201548152602001600282015481526020016003820154815260200160048201548152602001600582015481526020016006820154815250509050919050565b6001600301826040516106f29190611588565b908152602001604051809103902060009054906101000a900460ff1615610795578060018001836040516107269190611588565b90815260200160405180910390206000820151816000019080519060200190610750929190610bf1565b506020820151816001015560408201518160020155606082015181600301556080820151816004015560a0820151816005015560c082015181600601559050506108b9565b600180600301836040516107a99190611588565b908152602001604051809103902060006101000a81548160ff0219169083151502179055508060018001836040516107e19190611588565b9081526020016040518091039020600082015181600001908051906020019061080b929190610bf1565b506020820151816001015560408201518160020155606082015181600301556080820151816004015560a0820151816005015560c082015181600601559050506001600001805490506001600201836040516108679190611588565b9081526020016040518091039020819055506001600001829080600181540180825580915050600190039060005260206000200160009091909190915090805190602001906108b7929190610bf1565b505b5050565b6000600160000180549050905090565b6001600301816040516108e09190611588565b908152602001604051809103902060009054906101000a900460ff1661093f577f12aab090ce41e0d01aa3b62d0213076f4df2da9c040f57e69924f3ccdc8ff2fb81600060405161093292919061159f565b60405180910390a1610bb1565b6001600301816040516109529190611588565b908152602001604051809103902060006101000a81549060ff021916905560018001816040516109829190611588565b9081526020016040518091039020600080820160006109a19190610c77565b600182016000905560028201600090556003820160009055600482016000905560058201600090556006820160009055505060006001600201826040516109e89190611588565b9081526020016040518091039020549050600060018060000180549050610a0f91906115cf565b9050600060016000018281548110610a2a57610a2961146f565b5b906000526020600020018054610a3f9061143d565b80601f0160208091040260200160405190810160405280929190818152602001828054610a6b9061143d565b8015610ab85780601f10610a8d57610100808354040283529160200191610ab8565b820191906000526020600020905b815481529060010190602001808311610a9b57829003601f168201915b5050505050905082600160020182604051610ad39190611588565b908152602001604051809103902081905550600160020184604051610af89190611588565b9081526020016040518091039020600090558060016000018481548110610b2257610b2161146f565b5b906000526020600020019080519060200190610b3f929190610bf1565b506001600001805480610b5557610b54611603565b5b600190038181906000526020600020016000610b719190610c77565b90557f12aab090ce41e0d01aa3b62d0213076f4df2da9c040f57e69924f3ccdc8ff2fb846001604051610ba592919061159f565b60405180910390a15050505b50565b6040518060e00160405280606081526020016000815260200160008152602001600081526020016000815260200160008152602001600081525090565b828054610bfd9061143d565b90600052602060002090601f016020900481019282610c1f5760008555610c66565b82601f10610c3857805160ff1916838001178555610c66565b82800160010185558215610c66579182015b82811115610c65578251825591602001919060010190610c4a565b5b509050610c739190610cb7565b5090565b508054610c839061143d565b6000825580601f10610c955750610cb4565b601f016020900490600052602060002090810190610cb39190610cb7565b5b50565b5b80821115610cd0576000816000905550600101610cb8565b5090565b6000604051905090565b600080fd5b600080fd5b600080fd5b600080fd5b6000601f19601f8301169050919050565b7f4e487b7100000000000000000000000000000000000000000000000000000000600052604160045260246000fd5b610d3b82610cf2565b810181811067ffffffffffffffff82111715610d5a57610d59610d03565b5b80604052505050565b6000610d6d610cd4565b9050610d798282610d32565b919050565b600067ffffffffffffffff821115610d9957610d98610d03565b5b610da282610cf2565b9050602081019050919050565b82818337600083830152505050565b6000610dd1610dcc84610d7e565b610d63565b905082815260208101848484011115610ded57610dec610ced565b5b610df8848285610daf565b509392505050565b600082601f830112610e1557610e14610ce8565b5b8135610e25848260208601610dbe565b91505092915050565b600060208284031215610e4457610e43610cde565b5b600082013567ffffffffffffffff811115610e6257610e61610ce3565b5b610e6e84828501610e00565b91505092915050565b600081519050919050565b600082825260208201905092915050565b60005b83811015610eb1578082015181840152602081019050610e96565b83811115610ec0576000848401525b50505050565b6000610ed182610e77565b610edb8185610e82565b9350610eeb818560208601610e93565b610ef481610cf2565b840191505092915050565b6000819050919050565b610f1281610eff565b82525050565b600060e0830160008301518482036000860152610f358282610ec6565b9150506020830151610f4a6020860182610f09565b506040830151610f5d6040860182610f09565b506060830151610f706060860182610f09565b506080830151610f836080860182610f09565b5060a0830151610f9660a0860182610f09565b5060c0830151610fa960c0860182610f09565b508091505092915050565b60006020820190508181036000830152610fce8184610f18565b905092915050565b610fdf81610eff565b8114610fea57600080fd5b50565b600081359050610ffc81610fd6565b92915050565b600080600080600080600060e0888a03121561102157611020610cde565b5b600088013567ffffffffffffffff81111561103f5761103e610ce3565b5b61104b8a828b01610e00565b975050602061105c8a828b01610fed565b965050604061106d8a828b01610fed565b955050606061107e8a828b01610fed565b945050608061108f8a828b01610fed565b93505060a06110a08a828b01610fed565b92505060c06110b18a828b01610fed565b91505092959891949750929550565b6110c981610eff565b82525050565b60006020820190506110e460008301846110c0565b92915050565b600081519050919050565b600082825260208201905092915050565b6000819050602082019050919050565b60006111228383610ec6565b905092915050565b6000602082019050919050565b6000611142826110ea565b61114c81856110f5565b93508360208202850161115e85611106565b8060005b8581101561119a578484038952815161117b8582611116565b94506111868361112a565b925060208a01995050600181019050611162565b50829750879550505050505092915050565b600060208201905081810360008301526111c68184611137565b905092915050565b600081519050919050565b600082825260208201905092915050565b6000819050602082019050919050565b600060e08301600083015184820360008601526112178282610ec6565b915050602083015161122c6020860182610f09565b50604083015161123f6040860182610f09565b5060608301516112526060860182610f09565b5060808301516112656080860182610f09565b5060a083015161127860a0860182610f09565b5060c083015161128b60c0860182610f09565b508091505092915050565b60006112a283836111fa565b905092915050565b6000602082019050919050565b60006112c2826111ce565b6112cc81856111d9565b9350836020820285016112de856111ea565b8060005b8581101561131a57848403895281516112fb8582611296565b9450611306836112aa565b925060208a019950506001810190506112e2565b50829750879550505050505092915050565b6000602082019050818103600083015261134681846112b7565b905092915050565b600082825260208201905092915050565b600061136a82610e77565b611374818561134e565b9350611384818560208601610e93565b61138d81610cf2565b840191505092915050565b600060e08201905081810360008301526113b2818a61135f565b90506113c160208301896110c0565b6113ce60408301886110c0565b6113db60608301876110c0565b6113e860808301866110c0565b6113f560a08301856110c0565b61140260c08301846110c0565b98975050505050505050565b7f4e487b7100000000000000000000000000000000000000000000000000000000600052602260045260246000fd5b6000600282049050600182168061145557607f821691505b602082108114156114695761146861140e565b5b50919050565b7f4e487b7100000000000000000000000000000000000000000000000000000000600052603260045260246000fd5b7f4e487b7100000000000000000000000000000000000000000000000000000000600052601160045260246000fd5b60006114d882610eff565b91507fffffffffffffffffffffffffffffffffffffffffffffffffffffffffffffffff82141561150b5761150a61149e565b5b600182019050919050565b60008115159050919050565b61152b81611516565b82525050565b60006020820190506115466000830184611522565b92915050565b600081905092915050565b600061156282610e77565b61156c818561154c565b935061157c818560208601610e93565b80840191505092915050565b60006115948284611557565b915081905092915050565b600060408201905081810360008301526115b9818561135f565b90506115c86020830184611522565b9392505050565b60006115da82610eff565b91506115e583610eff565b9250828210156115f8576115f761149e565b5b828203905092915050565b7f4e487b7100000000000000000000000000000000000000000000000000000000600052603160045260246000fdfea26469706673582212209df19ea887e58f994ba13653becbfc7d79ce7436be2078d2fdbbb5ad2f925b0764736f6c634300080a003339323365316135372d343030302d346362322d383836392d636233376537376133353764",
  "immutableReferences": {},
  "source": "// SPDX-License-Identifier: MIT\r\npragma solidity ^0.8.10;\r\n\r\ncontract HibernationCalculator {\r\n    \r\n    uint public animalCount = 0;\r\n\r\n    struct HibernationInformation {\r\n        string uuid;\r\n        uint shellLength;\r\n        uint weight;\r\n        uint result;\r\n        uint min;\r\n        uint avg;\r\n        uint max;\r\n    }\r\n\r\n    struct Map {\r\n        string[] keys;\r\n        mapping(string => HibernationInformation) values;\r\n        mapping(string => uint) indexOf;\r\n        mapping(string => bool) inserted;\r\n    }\r\n\r\n    event AnimalAdded(\r\n        string uuid,\r\n        uint shellLength,\r\n        uint weight,\r\n        uint result,\r\n        uint min,\r\n        uint avg,\r\n        uint max\r\n    );\r\n\r\n    event AnimalDeleted(\r\n        string uuid,\r\n        bool deleted\r\n    );\r\n\r\n    event AnimalsCleared(\r\n        bool deleted\r\n    );\r\n\r\n    Map private animals;\r\n\r\n    constructor() {\r\n        initializeContract();\r\n    }\r\n\r\n    // public methods //\r\n    function addAnimal(\r\n        string memory uuid,\r\n        uint shellLength,\r\n        uint weight,\r\n        uint result,\r\n        uint min,\r\n        uint avg,\r\n        uint max\r\n    ) public {\r\n        HibernationInformation memory hibernationData = HibernationInformation(\r\n            uuid,\r\n            shellLength,\r\n            weight,\r\n            result,\r\n            min,\r\n            avg,\r\n            max\r\n        );\r\n\r\n        set(uuid, hibernationData);\r\n        emit AnimalAdded(uuid, shellLength, weight, result, min, avg, max);\r\n    }\r\n\r\n    function deleteAnimalByUUID(string memory uuid) public {\r\n        remove(uuid);\r\n    }\r\n\r\n    function clearAnimals() public {\r\n        string[] memory copyKeysArray = animals.keys;\r\n        for (uint i = 0; i < copyKeysArray.length; i++) {\r\n            remove(copyKeysArray[i]);\r\n        }\r\n        emit AnimalsCleared(true);\r\n    }\r\n\r\n    function getAnimals() public view returns (HibernationInformation[] memory) {\r\n        HibernationInformation[] memory animalArray = new HibernationInformation[](animals.keys.length);\r\n\r\n        for (uint i = 0; i < animals.keys.length; i++) {\r\n            HibernationInformation memory animal = get(animals.keys[i]);\r\n            animalArray[i] = animal;\r\n        }\r\n        return animalArray;\r\n    }\r\n\r\n    function getAnimalUUIDs() public view returns (string[] memory) {\r\n        return animals.keys;\r\n    }\r\n\r\n    function getAnimalCount() public view returns (uint) {\r\n        return size();\r\n    }\r\n\r\n    function getAnimalByUUID(string memory uuid) public view returns (HibernationInformation memory) {\r\n        return get(uuid);\r\n    }\r\n\r\n\r\n    // private methods //\r\n    function get(string memory key) private view returns (HibernationInformation memory) {\r\n        return animals.values[key];\r\n    }\r\n\r\n    function getKeyAtIndex(uint index) private view returns (string memory) {\r\n        return animals.keys[index];\r\n    }\r\n\r\n    function size() private view returns (uint) {\r\n        return animals.keys.length;\r\n    }\r\n\r\n    function set(string memory key, HibernationInformation memory val) private {\r\n        if (animals.inserted[key]) {\r\n            animals.values[key] = val;\r\n        } else {\r\n            animals.inserted[key] = true;\r\n            animals.values[key] = val;\r\n            animals.indexOf[key] = animals.keys.length;\r\n            animals.keys.push(key);\r\n        }\r\n    }\r\n\r\n    function remove(string memory key) private {\r\n        if (!animals.inserted[key]) {\r\n            emit AnimalDeleted(key, false);\r\n            return;\r\n        }\r\n\r\n        delete animals.inserted[key];\r\n        delete animals.values[key];\r\n\r\n        uint indexOfKeyToDelete = animals.indexOf[key];\r\n        uint lastIndexInKeysArray = animals.keys.length - 1;\r\n\r\n\r\n        string memory lastKey = animals.keys[lastIndexInKeysArray];\r\n\r\n        animals.indexOf[lastKey] = indexOfKeyToDelete;\r\n        delete animals.indexOf[key];\r\n\r\n        animals.keys[indexOfKeyToDelete] = lastKey;\r\n        animals.keys.pop();\r\n\r\n        emit AnimalDeleted(key, true);\r\n    }\r\n\r\n    function initializeContract() private {\r\n        addAnimal(\r\n            \"923e1a57-4000-4cb2-8869-cb37e77a357d\",\r\n            12000000000000000000,\r\n            11000000000000000000,\r\n            3,\r\n            257658000000000000000,\r\n            303611000000000000000,\r\n            350494000000000000000\r\n        );\r\n    }\r\n}",
  "sourcePath": "C:\\Users\\Rares Zaharescu\\Documents\\Workspace\\Projects\\hibernator-calculator-mbn-tech-vue\\blockchain\\contracts\\HibernationCalculator.sol",
  "compiler": {
    "name": "solc",
    "version": "0.8.10+commit.fc410830.Emscripten.clang"
  },
  "schemaVersion": "3.4.3",
  "updatedAt": "2021-12-23T17:56:19.006Z",
  "networkType": "ethereum",
  "devdoc": {
    "kind": "dev",
    "methods": {},
    "version": 1
  },
  "userdoc": {
    "kind": "user",
    "methods": {},
    "version": 1
  }
}