{
  "contractName": "HibernationCalculator",
  "abi": [
    {
      "inputs": [],
      "stateMutability": "nonpayable",
      "type": "constructor"
    },
    {
      "anonymous": false,
      "inputs": [
        {
          "indexed": false,
          "internalType": "string",
          "name": "uuid",
          "type": "string"
        },
        {
          "indexed": false,
          "internalType": "uint256",
          "name": "length",
          "type": "uint256"
        },
        {
          "indexed": false,
          "internalType": "uint256",
          "name": "weight",
          "type": "uint256"
        },
        {
          "indexed": false,
          "internalType": "uint256",
          "name": "result",
          "type": "uint256"
        },
        {
          "indexed": false,
          "internalType": "uint256",
          "name": "min",
          "type": "uint256"
        },
        {
          "indexed": false,
          "internalType": "uint256",
          "name": "avg",
          "type": "uint256"
        },
        {
          "indexed": false,
          "internalType": "uint256",
          "name": "max",
          "type": "uint256"
        }
      ],
      "name": "AnimalAdded",
      "type": "event"
    },
    {
      "anonymous": false,
      "inputs": [
        {
          "indexed": false,
          "internalType": "string",
          "name": "uuid",
          "type": "string"
        }
      ],
      "name": "AnimalDeleted",
      "type": "event"
    },
    {
      "inputs": [],
      "name": "animalCount",
      "outputs": [
        {
          "internalType": "uint256",
          "name": "",
          "type": "uint256"
        }
      ],
      "stateMutability": "view",
      "type": "function",
      "constant": true
    },
    {
      "inputs": [
        {
          "internalType": "uint256",
          "name": "",
          "type": "uint256"
        }
      ],
      "name": "animalMappingKeys",
      "outputs": [
        {
          "internalType": "string",
          "name": "",
          "type": "string"
        }
      ],
      "stateMutability": "view",
      "type": "function",
      "constant": true
    },
    {
      "inputs": [
        {
          "internalType": "string",
          "name": "",
          "type": "string"
        }
      ],
      "name": "animals",
      "outputs": [
        {
          "internalType": "string",
          "name": "uuid",
          "type": "string"
        },
        {
          "internalType": "uint256",
          "name": "length",
          "type": "uint256"
        },
        {
          "internalType": "uint256",
          "name": "weight",
          "type": "uint256"
        },
        {
          "internalType": "uint256",
          "name": "result",
          "type": "uint256"
        },
        {
          "internalType": "uint256",
          "name": "min",
          "type": "uint256"
        },
        {
          "internalType": "uint256",
          "name": "avg",
          "type": "uint256"
        },
        {
          "internalType": "uint256",
          "name": "max",
          "type": "uint256"
        }
      ],
      "stateMutability": "view",
      "type": "function",
      "constant": true
    },
    {
      "inputs": [
        {
          "internalType": "string",
          "name": "uuid",
          "type": "string"
        },
        {
          "internalType": "uint256",
          "name": "length",
          "type": "uint256"
        },
        {
          "internalType": "uint256",
          "name": "weight",
          "type": "uint256"
        },
        {
          "internalType": "uint256",
          "name": "result",
          "type": "uint256"
        },
        {
          "internalType": "uint256",
          "name": "min",
          "type": "uint256"
        },
        {
          "internalType": "uint256",
          "name": "avg",
          "type": "uint256"
        },
        {
          "internalType": "uint256",
          "name": "max",
          "type": "uint256"
        }
      ],
      "name": "addAnimal",
      "outputs": [],
      "stateMutability": "nonpayable",
      "type": "function"
    },
    {
      "inputs": [
        {
          "internalType": "string",
          "name": "uuid",
          "type": "string"
        }
      ],
      "name": "deleteAnimal",
      "outputs": [],
      "stateMutability": "nonpayable",
      "type": "function"
    },
    {
      "inputs": [],
      "name": "clearAnimals",
      "outputs": [],
      "stateMutability": "nonpayable",
      "type": "function"
    }
  ],
  "bytecode": "0x6080604052600080553480156200001557600080fd5b50620000266200002c60201b60201c565b62000510565b62000088604051806060016040528060248152602001620015a36024913967a688906bd8b000006798a7d9b8314c00006003680df7b919de9199000068107572f3e6651f800068130014d400d1c300006200008a60201b60201c565b565b6040518060e0016040528088815260200187815260200186815260200185815260200184815260200183815260200182815250600188604051620000cf919062000313565b90815260200160405180910390206000820151816000019080519060200190620000fb929190620001e0565b506020820151816001015560408201518160020155606082015181600301556080820151816004015560a0820151816005015560c0820151816006015590505060028790806001815401808255809150506001900390600052602060002001600090919091909150908051906020019062000178929190620001e0565b506000808154809291906200018d9062000365565b91905055507f69972a4399cac0d18db64f54cd79b3baaf30b389ed0baee782ccb90456d026a387878787878787604051620001cf979695949392919062000427565b60405180910390a150505050505050565b828054620001ee90620004da565b90600052602060002090601f0160209004810192826200021257600085556200025e565b82601f106200022d57805160ff19168380011785556200025e565b828001600101855582156200025e579182015b828111156200025d57825182559160200191906001019062000240565b5b5090506200026d919062000271565b5090565b5b808211156200028c57600081600090555060010162000272565b5090565b600081519050919050565b600081905092915050565b60005b83811015620002c6578082015181840152602081019050620002a9565b83811115620002d6576000848401525b50505050565b6000620002e98262000290565b620002f581856200029b565b935062000307818560208601620002a6565b80840191505092915050565b6000620003218284620002dc565b915081905092915050565b7f4e487b7100000000000000000000000000000000000000000000000000000000600052601160045260246000fd5b6000819050919050565b600062000372826200035b565b91507fffffffffffffffffffffffffffffffffffffffffffffffffffffffffffffffff821415620003a857620003a76200032c565b5b600182019050919050565b600082825260208201905092915050565b6000601f19601f8301169050919050565b6000620003e28262000290565b620003ee8185620003b3565b935062000400818560208601620002a6565b6200040b81620003c4565b840191505092915050565b62000421816200035b565b82525050565b600060e082019050818103600083015262000443818a620003d5565b905062000454602083018962000416565b62000463604083018862000416565b62000472606083018762000416565b62000481608083018662000416565b6200049060a083018562000416565b6200049f60c083018462000416565b98975050505050505050565b7f4e487b7100000000000000000000000000000000000000000000000000000000600052602260045260246000fd5b60006002820490506001821680620004f357607f821691505b602082108114156200050a5762000509620004ab565b5b50919050565b61108380620005206000396000f3fe608060405234801561001057600080fd5b50600436106100625760003560e01c80630f94e8d81461006757806327bd616e1461009757806343ccf5b2146100b35780637acdde6d146100d15780637e617eca146100db578063db576e8614610111575b600080fd5b610081600480360381019061007c9190610934565b61012d565b60405161008e91906109fa565b60405180910390f35b6100b160048036038101906100ac9190610b51565b6101d9565b005b6100bb610325565b6040516100c89190610c1e565b60405180910390f35b6100d961032b565b005b6100f560048036038101906100f09190610c39565b610400565b6040516101089796959493929190610c82565b60405180910390f35b61012b60048036038101906101269190610c39565b6104e0565b005b6002818154811061013d57600080fd5b90600052602060002001600091509050805461015890610d27565b80601f016020809104026020016040519081016040528092919081815260200182805461018490610d27565b80156101d15780601f106101a6576101008083540402835291602001916101d1565b820191906000526020600020905b8154815290600101906020018083116101b457829003601f168201915b505050505081565b6040518060e001604052808881526020018781526020018681526020018581526020018481526020018381526020018281525060018860405161021c9190610d95565b9081526020016040518091039020600082015181600001908051906020019061024692919061077a565b506020820151816001015560408201518160020155606082015181600301556080820151816004015560a0820151816005015560c082015181600601559050506002879080600181540180825580915050600190039060005260206000200160009091909190915090805190602001906102c192919061077a565b506000808154809291906102d490610ddb565b91905055507f69972a4399cac0d18db64f54cd79b3baaf30b389ed0baee782ccb90456d026a3878787878787876040516103149796959493929190610c82565b60405180910390a150505050505050565b60005481565b60005b6002805490508110156103fd576103ea6002828154811061035257610351610e24565b5b90600052602060002001805461036790610d27565b80601f016020809104026020016040519081016040528092919081815260200182805461039390610d27565b80156103e05780601f106103b5576101008083540402835291602001916103e0565b820191906000526020600020905b8154815290600101906020018083116103c357829003601f168201915b50505050506104e0565b80806103f590610ddb565b91505061032e565b50565b60018180516020810182018051848252602083016020850120818352809550505050505060009150905080600001805461043990610d27565b80601f016020809104026020016040519081016040528092919081815260200182805461046590610d27565b80156104b25780601f10610487576101008083540402835291602001916104b2565b820191906000526020600020905b81548152906001019060200180831161049557829003601f168201915b5050505050908060010154908060020154908060030154908060040154908060050154908060060154905087565b6001816040516104f09190610d95565b90815260200160405180910390206000808201600061050f9190610800565b600182016000905560028201600090556003820160009055600482016000905560058201600090556006820160009055505060008081548092919061055390610e53565b919050555060005b600160028054905061056d9190610e7d565b81101561060257816040516020016105859190610d95565b60405160208183030381529060405280519060200120600282815481106105af576105ae610e24565b5b906000526020600020016040516020016105c99190610f45565b6040516020818303038152906040528051906020012014156105ef576105ee8161066d565b5b80806105fa90610ddb565b91505061055b565b50600280548061061557610614610f5c565b5b6001900381819060005260206000200160006106319190610800565b90557f9c802db90c311532ca00f26a52c13228886c66fb64a2a927d31612a83849400d8160405161066291906109fa565b60405180910390a150565b60028054905081106106b4576040517f08c379a00000000000000000000000000000000000000000000000000000000081526004016106ab90610fd7565b60405180910390fd5b60008190505b60016002805490506106cc9190610e7d565b8110156107465760026001826106e29190610ff7565b815481106106f3576106f2610e24565b5b906000526020600020016002828154811061071157610710610e24565b5b9060005260206000200190805461072790610d27565b610732929190610840565b50808061073e90610ddb565b9150506106ba565b50600280548061075957610758610f5c565b5b6001900381819060005260206000200160006107759190610800565b905550565b82805461078690610d27565b90600052602060002090601f0160209004810192826107a857600085556107ef565b82601f106107c157805160ff19168380011785556107ef565b828001600101855582156107ef579182015b828111156107ee5782518255916020019190600101906107d3565b5b5090506107fc91906108cd565b5090565b50805461080c90610d27565b6000825580601f1061081e575061083d565b601f01602090049060005260206000209081019061083c91906108cd565b5b50565b82805461084c90610d27565b90600052602060002090601f01602090048101928261086e57600085556108bc565b82601f1061087f57805485556108bc565b828001600101855582156108bc57600052602060002091601f016020900482015b828111156108bb5782548255916001019190600101906108a0565b5b5090506108c991906108cd565b5090565b5b808211156108e65760008160009055506001016108ce565b5090565b6000604051905090565b600080fd5b600080fd5b6000819050919050565b610911816108fe565b811461091c57600080fd5b50565b60008135905061092e81610908565b92915050565b60006020828403121561094a576109496108f4565b5b60006109588482850161091f565b91505092915050565b600081519050919050565b600082825260208201905092915050565b60005b8381101561099b578082015181840152602081019050610980565b838111156109aa576000848401525b50505050565b6000601f19601f8301169050919050565b60006109cc82610961565b6109d6818561096c565b93506109e681856020860161097d565b6109ef816109b0565b840191505092915050565b60006020820190508181036000830152610a1481846109c1565b905092915050565b600080fd5b600080fd5b7f4e487b7100000000000000000000000000000000000000000000000000000000600052604160045260246000fd5b610a5e826109b0565b810181811067ffffffffffffffff82111715610a7d57610a7c610a26565b5b80604052505050565b6000610a906108ea565b9050610a9c8282610a55565b919050565b600067ffffffffffffffff821115610abc57610abb610a26565b5b610ac5826109b0565b9050602081019050919050565b82818337600083830152505050565b6000610af4610aef84610aa1565b610a86565b905082815260208101848484011115610b1057610b0f610a21565b5b610b1b848285610ad2565b509392505050565b600082601f830112610b3857610b37610a1c565b5b8135610b48848260208601610ae1565b91505092915050565b600080600080600080600060e0888a031215610b7057610b6f6108f4565b5b600088013567ffffffffffffffff811115610b8e57610b8d6108f9565b5b610b9a8a828b01610b23565b9750506020610bab8a828b0161091f565b9650506040610bbc8a828b0161091f565b9550506060610bcd8a828b0161091f565b9450506080610bde8a828b0161091f565b93505060a0610bef8a828b0161091f565b92505060c0610c008a828b0161091f565b91505092959891949750929550565b610c18816108fe565b82525050565b6000602082019050610c336000830184610c0f565b92915050565b600060208284031215610c4f57610c4e6108f4565b5b600082013567ffffffffffffffff811115610c6d57610c6c6108f9565b5b610c7984828501610b23565b91505092915050565b600060e0820190508181036000830152610c9c818a6109c1565b9050610cab6020830189610c0f565b610cb86040830188610c0f565b610cc56060830187610c0f565b610cd26080830186610c0f565b610cdf60a0830185610c0f565b610cec60c0830184610c0f565b98975050505050505050565b7f4e487b7100000000000000000000000000000000000000000000000000000000600052602260045260246000fd5b60006002820490506001821680610d3f57607f821691505b60208210811415610d5357610d52610cf8565b5b50919050565b600081905092915050565b6000610d6f82610961565b610d798185610d59565b9350610d8981856020860161097d565b80840191505092915050565b6000610da18284610d64565b915081905092915050565b7f4e487b7100000000000000000000000000000000000000000000000000000000600052601160045260246000fd5b6000610de6826108fe565b91507fffffffffffffffffffffffffffffffffffffffffffffffffffffffffffffffff821415610e1957610e18610dac565b5b600182019050919050565b7f4e487b7100000000000000000000000000000000000000000000000000000000600052603260045260246000fd5b6000610e5e826108fe565b91506000821415610e7257610e71610dac565b5b600182039050919050565b6000610e88826108fe565b9150610e93836108fe565b925082821015610ea657610ea5610dac565b5b828203905092915050565b60008190508160005260206000209050919050565b60008154610ed381610d27565b610edd8186610d59565b94506001821660008114610ef85760018114610f0957610f3c565b60ff19831686528186019350610f3c565b610f1285610eb1565b60005b83811015610f3457815481890152600182019150602081019050610f15565b838801955050505b50505092915050565b6000610f518284610ec6565b915081905092915050565b7f4e487b7100000000000000000000000000000000000000000000000000000000600052603160045260246000fd5b7f696e646578206f7574206f6620626f756e640000000000000000000000000000600082015250565b6000610fc160128361096c565b9150610fcc82610f8b565b602082019050919050565b60006020820190508181036000830152610ff081610fb4565b9050919050565b6000611002826108fe565b915061100d836108fe565b9250827fffffffffffffffffffffffffffffffffffffffffffffffffffffffffffffffff0382111561104257611041610dac565b5b82820190509291505056fea2646970667358221220d02fe6962bf8146ba1a8f55b73415cfc1dd4a7598e0bc7cf5f03d4f426957dcf64736f6c634300080a003339323365316135372d343030302d346362322d383836392d636233376537376133353764",
  "immutableReferences": {},
  "source": "// SPDX-License-Identifier: MIT\r\npragma solidity ^0.8.10;\r\n\r\ncontract HibernationCalculator {\r\n    uint public animalCount = 0;\r\n\r\n    struct HibernationInformation {\r\n        string uuid;\r\n        uint length;\r\n        uint weight;\r\n        uint result;\r\n        uint min;\r\n        uint avg;\r\n        uint max;\r\n    }\r\n\r\n    event AnimalAdded(\r\n        string uuid,\r\n        uint length,\r\n        uint weight,\r\n        uint result,\r\n        uint min,\r\n        uint avg,\r\n        uint max\r\n    );\r\n\r\n    event AnimalDeleted(\r\n        string uuid\r\n    );\r\n\r\n    mapping(string => HibernationInformation) public animals;\r\n\r\n    string[] public animalMappingKeys;\r\n\r\n    constructor() {\r\n        initializeContract();\r\n    }\r\n\r\n    function addAnimal(\r\n        string memory uuid,\r\n        uint length,\r\n        uint weight,\r\n        uint result,\r\n        uint min,\r\n        uint avg,\r\n        uint max\r\n    ) public {\r\n        animals[uuid] = HibernationInformation(uuid, length, weight, result, min, avg, max);\r\n        animalMappingKeys.push(uuid);\r\n        animalCount ++;\r\n        emit AnimalAdded(uuid, length, weight, result, min, avg, max);\r\n    }\r\n\r\n    function deleteAnimal(string memory uuid) public {\r\n        delete animals[uuid];\r\n        animalCount --;\r\n        \r\n        for (uint i = 0; i < animalMappingKeys.length - 1; i++) {\r\n            if (keccak256(abi.encodePacked(animalMappingKeys[i])) == keccak256(abi.encodePacked(uuid))) {\r\n                removeKeyFromAnimalMappingKeysByIndex(i);\r\n            }\r\n        }\r\n        animalMappingKeys.pop();\r\n\r\n        emit AnimalDeleted(uuid);\r\n    }\r\n\r\n    function clearAnimals() public {\r\n        for (uint i = 0; i < animalMappingKeys.length; i++) {\r\n            deleteAnimal(animalMappingKeys[i]);\r\n        }\r\n    }\r\n\r\n    function initializeContract() private {\r\n        addAnimal(\r\n            \"923e1a57-4000-4cb2-8869-cb37e77a357d\",\r\n            12000000000000000000,\r\n            11000000000000000000,\r\n            3,\r\n            257658000000000000000,\r\n            303611000000000000000,\r\n            350494000000000000000\r\n        );\r\n    }\r\n\r\n    function removeKeyFromAnimalMappingKeysByIndex(uint _index) private {\r\n        require(_index < animalMappingKeys.length, \"index out of bound\");\r\n\r\n        for (uint i = _index; i < animalMappingKeys.length - 1; i++) {\r\n            animalMappingKeys[i] = animalMappingKeys[i + 1];\r\n        }\r\n        animalMappingKeys.pop();\r\n    }\r\n}",
  "sourcePath": "C:\\Users\\Rares Zaharescu\\Documents\\Workspace\\Projects\\hibernation-calculator-contract\\contracts\\HibernationCalculator.sol",
  "compiler": {
    "name": "solc",
    "version": "0.8.10+commit.fc410830.Emscripten.clang"
  },
  "schemaVersion": "3.4.3",
  "updatedAt": "2021-12-13T17:20:19.473Z",
  "networkType": "ethereum",
  "devdoc": {
    "kind": "dev",
    "methods": {},
    "version": 1
  },
  "userdoc": {
    "kind": "user",
    "methods": {},
    "version": 1
  }
}