{
  "contractName": "HibernationCalculator",
  "abi": [
    {
      "inputs": [],
      "stateMutability": "nonpayable",
      "type": "constructor"
    },
    {
      "anonymous": false,
      "inputs": [
        {
          "indexed": false,
          "internalType": "string",
          "name": "uuid",
          "type": "string"
        },
        {
          "indexed": false,
          "internalType": "uint256",
          "name": "length",
          "type": "uint256"
        },
        {
          "indexed": false,
          "internalType": "uint256",
          "name": "weight",
          "type": "uint256"
        },
        {
          "indexed": false,
          "internalType": "uint256",
          "name": "result",
          "type": "uint256"
        },
        {
          "indexed": false,
          "internalType": "uint256",
          "name": "min",
          "type": "uint256"
        },
        {
          "indexed": false,
          "internalType": "uint256",
          "name": "avg",
          "type": "uint256"
        },
        {
          "indexed": false,
          "internalType": "uint256",
          "name": "max",
          "type": "uint256"
        }
      ],
      "name": "AnimalAdded",
      "type": "event"
    },
    {
      "anonymous": false,
      "inputs": [
        {
          "indexed": false,
          "internalType": "string",
          "name": "uuid",
          "type": "string"
        }
      ],
      "name": "AnimalDeleted",
      "type": "event"
    },
    {
      "anonymous": false,
      "inputs": [
        {
          "indexed": false,
          "internalType": "bool",
          "name": "deleted",
          "type": "bool"
        }
      ],
      "name": "AnimalsCleared",
      "type": "event"
    },
    {
      "inputs": [],
      "name": "animalCount",
      "outputs": [
        {
          "internalType": "uint256",
          "name": "",
          "type": "uint256"
        }
      ],
      "stateMutability": "view",
      "type": "function",
      "constant": true
    },
    {
      "inputs": [
        {
          "internalType": "uint256",
          "name": "",
          "type": "uint256"
        }
      ],
      "name": "animalKeysArray",
      "outputs": [
        {
          "internalType": "string",
          "name": "",
          "type": "string"
        }
      ],
      "stateMutability": "view",
      "type": "function",
      "constant": true
    },
    {
      "inputs": [
        {
          "internalType": "string",
          "name": "",
          "type": "string"
        }
      ],
      "name": "animals",
      "outputs": [
        {
          "internalType": "string",
          "name": "uuid",
          "type": "string"
        },
        {
          "internalType": "uint256",
          "name": "length",
          "type": "uint256"
        },
        {
          "internalType": "uint256",
          "name": "weight",
          "type": "uint256"
        },
        {
          "internalType": "uint256",
          "name": "result",
          "type": "uint256"
        },
        {
          "internalType": "uint256",
          "name": "min",
          "type": "uint256"
        },
        {
          "internalType": "uint256",
          "name": "avg",
          "type": "uint256"
        },
        {
          "internalType": "uint256",
          "name": "max",
          "type": "uint256"
        }
      ],
      "stateMutability": "view",
      "type": "function",
      "constant": true
    },
    {
      "inputs": [
        {
          "internalType": "string",
          "name": "uuid",
          "type": "string"
        },
        {
          "internalType": "uint256",
          "name": "length",
          "type": "uint256"
        },
        {
          "internalType": "uint256",
          "name": "weight",
          "type": "uint256"
        },
        {
          "internalType": "uint256",
          "name": "result",
          "type": "uint256"
        },
        {
          "internalType": "uint256",
          "name": "min",
          "type": "uint256"
        },
        {
          "internalType": "uint256",
          "name": "avg",
          "type": "uint256"
        },
        {
          "internalType": "uint256",
          "name": "max",
          "type": "uint256"
        }
      ],
      "name": "addAnimal",
      "outputs": [],
      "stateMutability": "nonpayable",
      "type": "function"
    },
    {
      "inputs": [
        {
          "internalType": "string",
          "name": "uuid",
          "type": "string"
        }
      ],
      "name": "deleteAnimal",
      "outputs": [],
      "stateMutability": "nonpayable",
      "type": "function"
    },
    {
      "inputs": [],
      "name": "clearAnimals",
      "outputs": [],
      "stateMutability": "nonpayable",
      "type": "function"
    },
    {
      "inputs": [],
      "name": "getAnimalUUIDs",
      "outputs": [
        {
          "internalType": "string[]",
          "name": "",
          "type": "string[]"
        }
      ],
      "stateMutability": "view",
      "type": "function",
      "constant": true
    }
  ],
  "bytecode": "0x6080604052600080553480156200001557600080fd5b50620000266200002c60201b60201c565b62000510565b62000088604051806060016040528060248152602001620019056024913967a688906bd8b000006798a7d9b8314c00006003680df7b919de9199000068107572f3e6651f800068130014d400d1c300006200008a60201b60201c565b565b6040518060e0016040528088815260200187815260200186815260200185815260200184815260200183815260200182815250600188604051620000cf919062000313565b90815260200160405180910390206000820151816000019080519060200190620000fb929190620001e0565b506020820151816001015560408201518160020155606082015181600301556080820151816004015560a0820151816005015560c0820151816006015590505060028790806001815401808255809150506001900390600052602060002001600090919091909150908051906020019062000178929190620001e0565b506000808154809291906200018d9062000365565b91905055507f69972a4399cac0d18db64f54cd79b3baaf30b389ed0baee782ccb90456d026a387878787878787604051620001cf979695949392919062000427565b60405180910390a150505050505050565b828054620001ee90620004da565b90600052602060002090601f0160209004810192826200021257600085556200025e565b82601f106200022d57805160ff19168380011785556200025e565b828001600101855582156200025e579182015b828111156200025d57825182559160200191906001019062000240565b5b5090506200026d919062000271565b5090565b5b808211156200028c57600081600090555060010162000272565b5090565b600081519050919050565b600081905092915050565b60005b83811015620002c6578082015181840152602081019050620002a9565b83811115620002d6576000848401525b50505050565b6000620002e98262000290565b620002f581856200029b565b935062000307818560208601620002a6565b80840191505092915050565b6000620003218284620002dc565b915081905092915050565b7f4e487b7100000000000000000000000000000000000000000000000000000000600052601160045260246000fd5b6000819050919050565b600062000372826200035b565b91507fffffffffffffffffffffffffffffffffffffffffffffffffffffffffffffffff821415620003a857620003a76200032c565b5b600182019050919050565b600082825260208201905092915050565b6000601f19601f8301169050919050565b6000620003e28262000290565b620003ee8185620003b3565b935062000400818560208601620002a6565b6200040b81620003c4565b840191505092915050565b62000421816200035b565b82525050565b600060e082019050818103600083015262000443818a620003d5565b905062000454602083018962000416565b62000463604083018862000416565b62000472606083018762000416565b62000481608083018662000416565b6200049060a083018562000416565b6200049f60c083018462000416565b98975050505050505050565b7f4e487b7100000000000000000000000000000000000000000000000000000000600052602260045260246000fd5b60006002820490506001821680620004f357607f821691505b602082108114156200050a5762000509620004ab565b5b50919050565b6113e580620005206000396000f3fe608060405234801561001057600080fd5b506004361061007d5760003560e01c80634c1d0af21161005b5780634c1d0af2146100ec5780637acdde6d1461010a5780637e617eca14610114578063db576e861461014a5761007d565b80631a2a81421461008257806327bd616e146100b257806343ccf5b2146100ce575b600080fd5b61009c60048036038101906100979190610ac6565b610166565b6040516100a99190610b8c565b60405180910390f35b6100cc60048036038101906100c79190610ce3565b610212565b005b6100d661035e565b6040516100e39190610db0565b60405180910390f35b6100f4610364565b6040516101019190610ed7565b60405180910390f35b61011261043d565b005b61012e60048036038101906101299190610ef9565b610592565b6040516101419796959493929190610f42565b60405180910390f35b610164600480360381019061015f9190610ef9565b610672565b005b6002818154811061017657600080fd5b90600052602060002001600091509050805461019190610fe7565b80601f01602080910402602001604051908101604052809291908181526020018280546101bd90610fe7565b801561020a5780601f106101df5761010080835404028352916020019161020a565b820191906000526020600020905b8154815290600101906020018083116101ed57829003601f168201915b505050505081565b6040518060e00160405280888152602001878152602001868152602001858152602001848152602001838152602001828152506001886040516102559190611055565b9081526020016040518091039020600082015181600001908051906020019061027f92919061090c565b506020820151816001015560408201518160020155606082015181600301556080820151816004015560a0820151816005015560c082015181600601559050506002879080600181540180825580915050600190039060005260206000200160009091909190915090805190602001906102fa92919061090c565b5060008081548092919061030d9061109b565b91905055507f69972a4399cac0d18db64f54cd79b3baaf30b389ed0baee782ccb90456d026a38787878787878760405161034d9796959493929190610f42565b60405180910390a150505050505050565b60005481565b60606002805480602002602001604051908101604052809291908181526020016000905b828210156104345783829060005260206000200180546103a790610fe7565b80601f01602080910402602001604051908101604052809291908181526020018280546103d390610fe7565b80156104205780601f106103f557610100808354040283529160200191610420565b820191906000526020600020905b81548152906001019060200180831161040357829003601f168201915b505050505081526020019060010190610388565b50505050905090565b600060028054905011610485576040517f08c379a000000000000000000000000000000000000000000000000000000000815260040161047c90611130565b60405180910390fd5b60005b60028054905081101561055757610544600282815481106104ac576104ab611150565b5b9060005260206000200180546104c190610fe7565b80601f01602080910402602001604051908101604052809291908181526020018280546104ed90610fe7565b801561053a5780601f1061050f5761010080835404028352916020019161053a565b820191906000526020600020905b81548152906001019060200180831161051d57829003601f168201915b5050505050610672565b808061054f9061109b565b915050610488565b507f3027fa5f89b510077bccd0c31dde078d30369edaeeca6c93c24d6758cfb7fc0f6001604051610588919061119a565b60405180910390a1565b6001818051602081018201805184825260208301602085012081835280955050505050506000915090508060000180546105cb90610fe7565b80601f01602080910402602001604051908101604052809291908181526020018280546105f790610fe7565b80156106445780601f1061061957610100808354040283529160200191610644565b820191906000526020600020905b81548152906001019060200180831161062757829003601f168201915b5050505050908060010154908060020154908060030154908060040154908060050154908060060154905087565b6001816040516106829190611055565b9081526020016040518091039020600080820160006106a19190610992565b60018201600090556002820160009055600382016000905560048201600090556005820160009055600682016000905550506000808154809291906106e5906111b5565b919050555060005b60016002805490506106ff91906111df565b81101561079457816040516020016107179190611055565b604051602081830303815290604052805190602001206002828154811061074157610740611150565b5b9060005260206000200160405160200161075b91906112a7565b60405160208183030381529060405280519060200120141561078157610780816107ff565b5b808061078c9061109b565b9150506106ed565b5060028054806107a7576107a66112be565b5b6001900381819060005260206000200160006107c39190610992565b90557f9c802db90c311532ca00f26a52c13228886c66fb64a2a927d31612a83849400d816040516107f49190610b8c565b60405180910390a150565b6002805490508110610846576040517f08c379a000000000000000000000000000000000000000000000000000000000815260040161083d90611339565b60405180910390fd5b60008190505b600160028054905061085e91906111df565b8110156108d85760026001826108749190611359565b8154811061088557610884611150565b5b90600052602060002001600282815481106108a3576108a2611150565b5b906000526020600020019080546108b990610fe7565b6108c49291906109d2565b5080806108d09061109b565b91505061084c565b5060028054806108eb576108ea6112be565b5b6001900381819060005260206000200160006109079190610992565b905550565b82805461091890610fe7565b90600052602060002090601f01602090048101928261093a5760008555610981565b82601f1061095357805160ff1916838001178555610981565b82800160010185558215610981579182015b82811115610980578251825591602001919060010190610965565b5b50905061098e9190610a5f565b5090565b50805461099e90610fe7565b6000825580601f106109b057506109cf565b601f0160209004906000526020600020908101906109ce9190610a5f565b5b50565b8280546109de90610fe7565b90600052602060002090601f016020900481019282610a005760008555610a4e565b82601f10610a115780548555610a4e565b82800160010185558215610a4e57600052602060002091601f016020900482015b82811115610a4d578254825591600101919060010190610a32565b5b509050610a5b9190610a5f565b5090565b5b80821115610a78576000816000905550600101610a60565b5090565b6000604051905090565b600080fd5b600080fd5b6000819050919050565b610aa381610a90565b8114610aae57600080fd5b50565b600081359050610ac081610a9a565b92915050565b600060208284031215610adc57610adb610a86565b5b6000610aea84828501610ab1565b91505092915050565b600081519050919050565b600082825260208201905092915050565b60005b83811015610b2d578082015181840152602081019050610b12565b83811115610b3c576000848401525b50505050565b6000601f19601f8301169050919050565b6000610b5e82610af3565b610b688185610afe565b9350610b78818560208601610b0f565b610b8181610b42565b840191505092915050565b60006020820190508181036000830152610ba68184610b53565b905092915050565b600080fd5b600080fd5b7f4e487b7100000000000000000000000000000000000000000000000000000000600052604160045260246000fd5b610bf082610b42565b810181811067ffffffffffffffff82111715610c0f57610c0e610bb8565b5b80604052505050565b6000610c22610a7c565b9050610c2e8282610be7565b919050565b600067ffffffffffffffff821115610c4e57610c4d610bb8565b5b610c5782610b42565b9050602081019050919050565b82818337600083830152505050565b6000610c86610c8184610c33565b610c18565b905082815260208101848484011115610ca257610ca1610bb3565b5b610cad848285610c64565b509392505050565b600082601f830112610cca57610cc9610bae565b5b8135610cda848260208601610c73565b91505092915050565b600080600080600080600060e0888a031215610d0257610d01610a86565b5b600088013567ffffffffffffffff811115610d2057610d1f610a8b565b5b610d2c8a828b01610cb5565b9750506020610d3d8a828b01610ab1565b9650506040610d4e8a828b01610ab1565b9550506060610d5f8a828b01610ab1565b9450506080610d708a828b01610ab1565b93505060a0610d818a828b01610ab1565b92505060c0610d928a828b01610ab1565b91505092959891949750929550565b610daa81610a90565b82525050565b6000602082019050610dc56000830184610da1565b92915050565b600081519050919050565b600082825260208201905092915050565b6000819050602082019050919050565b600082825260208201905092915050565b6000610e1382610af3565b610e1d8185610df7565b9350610e2d818560208601610b0f565b610e3681610b42565b840191505092915050565b6000610e4d8383610e08565b905092915050565b6000602082019050919050565b6000610e6d82610dcb565b610e778185610dd6565b935083602082028501610e8985610de7565b8060005b85811015610ec55784840389528151610ea68582610e41565b9450610eb183610e55565b925060208a01995050600181019050610e8d565b50829750879550505050505092915050565b60006020820190508181036000830152610ef18184610e62565b905092915050565b600060208284031215610f0f57610f0e610a86565b5b600082013567ffffffffffffffff811115610f2d57610f2c610a8b565b5b610f3984828501610cb5565b91505092915050565b600060e0820190508181036000830152610f5c818a610b53565b9050610f6b6020830189610da1565b610f786040830188610da1565b610f856060830187610da1565b610f926080830186610da1565b610f9f60a0830185610da1565b610fac60c0830184610da1565b98975050505050505050565b7f4e487b7100000000000000000000000000000000000000000000000000000000600052602260045260246000fd5b60006002820490506001821680610fff57607f821691505b6020821081141561101357611012610fb8565b5b50919050565b600081905092915050565b600061102f82610af3565b6110398185611019565b9350611049818560208601610b0f565b80840191505092915050565b60006110618284611024565b915081905092915050565b7f4e487b7100000000000000000000000000000000000000000000000000000000600052601160045260246000fd5b60006110a682610a90565b91507fffffffffffffffffffffffffffffffffffffffffffffffffffffffffffffffff8214156110d9576110d861106c565b5b600182019050919050565b7f43616e27742064656c65746520616e696d616c73000000000000000000000000600082015250565b600061111a601483610afe565b9150611125826110e4565b602082019050919050565b600060208201905081810360008301526111498161110d565b9050919050565b7f4e487b7100000000000000000000000000000000000000000000000000000000600052603260045260246000fd5b60008115159050919050565b6111948161117f565b82525050565b60006020820190506111af600083018461118b565b92915050565b60006111c082610a90565b915060008214156111d4576111d361106c565b5b600182039050919050565b60006111ea82610a90565b91506111f583610a90565b9250828210156112085761120761106c565b5b828203905092915050565b60008190508160005260206000209050919050565b6000815461123581610fe7565b61123f8186611019565b9450600182166000811461125a576001811461126b5761129e565b60ff1983168652818601935061129e565b61127485611213565b60005b8381101561129657815481890152600182019150602081019050611277565b838801955050505b50505092915050565b60006112b38284611228565b915081905092915050565b7f4e487b7100000000000000000000000000000000000000000000000000000000600052603160045260246000fd5b7f696e646578206f7574206f6620626f756e640000000000000000000000000000600082015250565b6000611323601283610afe565b915061132e826112ed565b602082019050919050565b6000602082019050818103600083015261135281611316565b9050919050565b600061136482610a90565b915061136f83610a90565b9250827fffffffffffffffffffffffffffffffffffffffffffffffffffffffffffffffff038211156113a4576113a361106c565b5b82820190509291505056fea264697066735822122034566ef1cc86fc1ffea0c7b2a2cec676794c8a4defbb9a231d3b1d90aea272a464736f6c634300080a003339323365316135372d343030302d346362322d383836392d636233376537376133353764",
  "immutableReferences": {},
  "source": "// SPDX-License-Identifier: MIT\r\npragma solidity ^0.8.10;\r\n\r\ncontract HibernationCalculator {\r\n    uint public animalCount = 0;\r\n\r\n    struct HibernationInformation {\r\n        string uuid;\r\n        uint length;\r\n        uint weight;\r\n        uint result;\r\n        uint min;\r\n        uint avg;\r\n        uint max;\r\n    }\r\n\r\n    event AnimalAdded(\r\n        string uuid,\r\n        uint length,\r\n        uint weight,\r\n        uint result,\r\n        uint min,\r\n        uint avg,\r\n        uint max\r\n    );\r\n\r\n    event AnimalDeleted(\r\n        string uuid\r\n    );\r\n\r\n    event AnimalsCleared(\r\n        bool deleted\r\n    );\r\n\r\n    mapping(string => HibernationInformation) public animals;\r\n\r\n    string[] public animalKeysArray;\r\n\r\n    constructor() {\r\n        initializeContract();\r\n    }\r\n\r\n    function addAnimal(\r\n        string memory uuid,\r\n        uint length,\r\n        uint weight,\r\n        uint result,\r\n        uint min,\r\n        uint avg,\r\n        uint max\r\n    ) public {\r\n        animals[uuid] = HibernationInformation(uuid, length, weight, result, min, avg, max);\r\n        animalKeysArray.push(uuid);\r\n        animalCount ++;\r\n        emit AnimalAdded(uuid, length, weight, result, min, avg, max);\r\n    }\r\n\r\n    function deleteAnimal(string memory uuid) public {\r\n        delete animals[uuid];\r\n        animalCount --;\r\n        \r\n        for (uint i = 0; i < animalKeysArray.length - 1; i++) {\r\n            if (keccak256(abi.encodePacked(animalKeysArray[i])) == keccak256(abi.encodePacked(uuid))) {\r\n                removeKeyFromAnimalKeysArrayByIndex(i);\r\n            }\r\n        }\r\n        animalKeysArray.pop();\r\n\r\n        emit AnimalDeleted(uuid);\r\n    }\r\n\r\n    function clearAnimals() public {\r\n        require(animalKeysArray.length > 0, \"Can't delete animals\");\r\n        \r\n        for (uint i = 0; i < animalKeysArray.length; i++) {\r\n            deleteAnimal(animalKeysArray[i]);\r\n        }\r\n        emit AnimalsCleared(true);\r\n    }\r\n\r\n    function getAnimalUUIDs() public view returns (string[] memory){\r\n        return animalKeysArray;\r\n    }\r\n\r\n    function initializeContract() private {\r\n        addAnimal(\r\n            \"923e1a57-4000-4cb2-8869-cb37e77a357d\",\r\n            12000000000000000000,\r\n            11000000000000000000,\r\n            3,\r\n            257658000000000000000,\r\n            303611000000000000000,\r\n            350494000000000000000\r\n        );\r\n    }\r\n\r\n    function removeKeyFromAnimalKeysArrayByIndex(uint _index) private {\r\n        require(_index < animalKeysArray.length, \"index out of bound\");\r\n\r\n        for (uint i = _index; i < animalKeysArray.length - 1; i++) {\r\n            animalKeysArray[i] = animalKeysArray[i + 1];\r\n        }\r\n        animalKeysArray.pop();\r\n    }\r\n}",
  "sourcePath": "C:\\Users\\Rares Zaharescu\\Documents\\Workspace\\Projects\\hibernator-calculator-mbn-tech-vue\\blockchain\\contracts\\HibernationCalculator.sol",
  "compiler": {
    "name": "solc",
    "version": "0.8.10+commit.fc410830.Emscripten.clang"
  },
  "schemaVersion": "3.4.3",
  "updatedAt": "2021-12-14T17:55:16.581Z",
  "networkType": "ethereum",
  "devdoc": {
    "kind": "dev",
    "methods": {},
    "version": 1
  },
  "userdoc": {
    "kind": "user",
    "methods": {},
    "version": 1
  }
}