{
  "contractName": "HibernationCalculator",
  "abi": [
    {
      "inputs": [],
      "stateMutability": "nonpayable",
      "type": "constructor"
    },
    {
      "anonymous": false,
      "inputs": [
        {
          "indexed": false,
          "internalType": "string",
          "name": "uuid",
          "type": "string"
        },
        {
          "indexed": false,
          "internalType": "uint256",
          "name": "length",
          "type": "uint256"
        },
        {
          "indexed": false,
          "internalType": "uint256",
          "name": "weight",
          "type": "uint256"
        },
        {
          "indexed": false,
          "internalType": "uint256",
          "name": "result",
          "type": "uint256"
        },
        {
          "indexed": false,
          "internalType": "uint256",
          "name": "min",
          "type": "uint256"
        },
        {
          "indexed": false,
          "internalType": "uint256",
          "name": "avg",
          "type": "uint256"
        },
        {
          "indexed": false,
          "internalType": "uint256",
          "name": "max",
          "type": "uint256"
        }
      ],
      "name": "AnimalAdded",
      "type": "event"
    },
    {
      "anonymous": false,
      "inputs": [
        {
          "indexed": false,
          "internalType": "string",
          "name": "uuid",
          "type": "string"
        }
      ],
      "name": "AnimalDeleted",
      "type": "event"
    },
    {
      "anonymous": false,
      "inputs": [
        {
          "indexed": false,
          "internalType": "bool",
          "name": "deleted",
          "type": "bool"
        }
      ],
      "name": "AnimalsCleared",
      "type": "event"
    },
    {
      "inputs": [],
      "name": "animalCount",
      "outputs": [
        {
          "internalType": "uint256",
          "name": "",
          "type": "uint256"
        }
      ],
      "stateMutability": "view",
      "type": "function",
      "constant": true
    },
    {
      "inputs": [
        {
          "internalType": "uint256",
          "name": "",
          "type": "uint256"
        }
      ],
      "name": "animalKeysArray",
      "outputs": [
        {
          "internalType": "string",
          "name": "",
          "type": "string"
        }
      ],
      "stateMutability": "view",
      "type": "function",
      "constant": true
    },
    {
      "inputs": [
        {
          "internalType": "string",
          "name": "",
          "type": "string"
        }
      ],
      "name": "animals",
      "outputs": [
        {
          "internalType": "string",
          "name": "uuid",
          "type": "string"
        },
        {
          "internalType": "uint256",
          "name": "length",
          "type": "uint256"
        },
        {
          "internalType": "uint256",
          "name": "weight",
          "type": "uint256"
        },
        {
          "internalType": "uint256",
          "name": "result",
          "type": "uint256"
        },
        {
          "internalType": "uint256",
          "name": "min",
          "type": "uint256"
        },
        {
          "internalType": "uint256",
          "name": "avg",
          "type": "uint256"
        },
        {
          "internalType": "uint256",
          "name": "max",
          "type": "uint256"
        }
      ],
      "stateMutability": "view",
      "type": "function",
      "constant": true
    },
    {
      "inputs": [
        {
          "internalType": "string",
          "name": "uuid",
          "type": "string"
        },
        {
          "internalType": "uint256",
          "name": "length",
          "type": "uint256"
        },
        {
          "internalType": "uint256",
          "name": "weight",
          "type": "uint256"
        },
        {
          "internalType": "uint256",
          "name": "result",
          "type": "uint256"
        },
        {
          "internalType": "uint256",
          "name": "min",
          "type": "uint256"
        },
        {
          "internalType": "uint256",
          "name": "avg",
          "type": "uint256"
        },
        {
          "internalType": "uint256",
          "name": "max",
          "type": "uint256"
        }
      ],
      "name": "addAnimal",
      "outputs": [],
      "stateMutability": "nonpayable",
      "type": "function"
    },
    {
      "inputs": [
        {
          "internalType": "string",
          "name": "uuid",
          "type": "string"
        }
      ],
      "name": "deleteAnimal",
      "outputs": [],
      "stateMutability": "nonpayable",
      "type": "function"
    },
    {
      "inputs": [],
      "name": "clearAnimals",
      "outputs": [],
      "stateMutability": "nonpayable",
      "type": "function"
    },
    {
      "inputs": [],
      "name": "getAnimalUUIDs",
      "outputs": [
        {
          "internalType": "string[]",
          "name": "",
          "type": "string[]"
        }
      ],
      "stateMutability": "view",
      "type": "function",
      "constant": true
    }
  ],
  "bytecode": "0x6080604052600080553480156200001557600080fd5b50620000266200002c60201b60201c565b62000510565b62000088604051806060016040528060248152602001620018516024913967a688906bd8b000006798a7d9b8314c00006003680df7b919de9199000068107572f3e6651f800068130014d400d1c300006200008a60201b60201c565b565b6040518060e0016040528088815260200187815260200186815260200185815260200184815260200183815260200182815250600188604051620000cf919062000313565b90815260200160405180910390206000820151816000019080519060200190620000fb929190620001e0565b506020820151816001015560408201518160020155606082015181600301556080820151816004015560a0820151816005015560c0820151816006015590505060028790806001815401808255809150506001900390600052602060002001600090919091909150908051906020019062000178929190620001e0565b506000808154809291906200018d9062000365565b91905055507f69972a4399cac0d18db64f54cd79b3baaf30b389ed0baee782ccb90456d026a387878787878787604051620001cf979695949392919062000427565b60405180910390a150505050505050565b828054620001ee90620004da565b90600052602060002090601f0160209004810192826200021257600085556200025e565b82601f106200022d57805160ff19168380011785556200025e565b828001600101855582156200025e579182015b828111156200025d57825182559160200191906001019062000240565b5b5090506200026d919062000271565b5090565b5b808211156200028c57600081600090555060010162000272565b5090565b600081519050919050565b600081905092915050565b60005b83811015620002c6578082015181840152602081019050620002a9565b83811115620002d6576000848401525b50505050565b6000620002e98262000290565b620002f581856200029b565b935062000307818560208601620002a6565b80840191505092915050565b6000620003218284620002dc565b915081905092915050565b7f4e487b7100000000000000000000000000000000000000000000000000000000600052601160045260246000fd5b6000819050919050565b600062000372826200035b565b91507fffffffffffffffffffffffffffffffffffffffffffffffffffffffffffffffff821415620003a857620003a76200032c565b5b600182019050919050565b600082825260208201905092915050565b6000601f19601f8301169050919050565b6000620003e28262000290565b620003ee8185620003b3565b935062000400818560208601620002a6565b6200040b81620003c4565b840191505092915050565b62000421816200035b565b82525050565b600060e082019050818103600083015262000443818a620003d5565b905062000454602083018962000416565b62000463604083018862000416565b62000472606083018762000416565b62000481608083018662000416565b6200049060a083018562000416565b6200049f60c083018462000416565b98975050505050505050565b7f4e487b7100000000000000000000000000000000000000000000000000000000600052602260045260246000fd5b60006002820490506001821680620004f357607f821691505b602082108114156200050a5762000509620004ab565b5b50919050565b61133180620005206000396000f3fe608060405234801561001057600080fd5b506004361061007d5760003560e01c80634c1d0af21161005b5780634c1d0af2146100ec5780637acdde6d1461010a5780637e617eca14610114578063db576e861461014a5761007d565b80631a2a81421461008257806327bd616e146100b257806343ccf5b2146100ce575b600080fd5b61009c60048036038101906100979190610a7e565b610166565b6040516100a99190610b44565b60405180910390f35b6100cc60048036038101906100c79190610c9b565b610212565b005b6100d661035e565b6040516100e39190610d68565b60405180910390f35b6100f4610364565b6040516101019190610e8f565b60405180910390f35b61011261043d565b005b61012e60048036038101906101299190610eb1565b61054a565b6040516101419796959493929190610efa565b60405180910390f35b610164600480360381019061015f9190610eb1565b61062a565b005b6002818154811061017657600080fd5b90600052602060002001600091509050805461019190610f9f565b80601f01602080910402602001604051908101604052809291908181526020018280546101bd90610f9f565b801561020a5780601f106101df5761010080835404028352916020019161020a565b820191906000526020600020905b8154815290600101906020018083116101ed57829003601f168201915b505050505081565b6040518060e0016040528088815260200187815260200186815260200185815260200184815260200183815260200182815250600188604051610255919061100d565b9081526020016040518091039020600082015181600001908051906020019061027f9291906108c4565b506020820151816001015560408201518160020155606082015181600301556080820151816004015560a0820151816005015560c082015181600601559050506002879080600181540180825580915050600190039060005260206000200160009091909190915090805190602001906102fa9291906108c4565b5060008081548092919061030d90611053565b91905055507f69972a4399cac0d18db64f54cd79b3baaf30b389ed0baee782ccb90456d026a38787878787878760405161034d9796959493929190610efa565b60405180910390a150505050505050565b60005481565b60606002805480602002602001604051908101604052809291908181526020016000905b828210156104345783829060005260206000200180546103a790610f9f565b80601f01602080910402602001604051908101604052809291908181526020018280546103d390610f9f565b80156104205780601f106103f557610100808354040283529160200191610420565b820191906000526020600020905b81548152906001019060200180831161040357829003601f168201915b505050505081526020019060010190610388565b50505050905090565b60005b60028054905081101561050f576104fc600282815481106104645761046361109c565b5b90600052602060002001805461047990610f9f565b80601f01602080910402602001604051908101604052809291908181526020018280546104a590610f9f565b80156104f25780601f106104c7576101008083540402835291602001916104f2565b820191906000526020600020905b8154815290600101906020018083116104d557829003601f168201915b505050505061062a565b808061050790611053565b915050610440565b507f3027fa5f89b510077bccd0c31dde078d30369edaeeca6c93c24d6758cfb7fc0f600160405161054091906110e6565b60405180910390a1565b60018180516020810182018051848252602083016020850120818352809550505050505060009150905080600001805461058390610f9f565b80601f01602080910402602001604051908101604052809291908181526020018280546105af90610f9f565b80156105fc5780601f106105d1576101008083540402835291602001916105fc565b820191906000526020600020905b8154815290600101906020018083116105df57829003601f168201915b5050505050908060010154908060020154908060030154908060040154908060050154908060060154905087565b60018160405161063a919061100d565b908152602001604051809103902060008082016000610659919061094a565b600182016000905560028201600090556003820160009055600482016000905560058201600090556006820160009055505060008081548092919061069d90611101565b919050555060005b60016002805490506106b7919061112b565b81101561074c57816040516020016106cf919061100d565b60405160208183030381529060405280519060200120600282815481106106f9576106f861109c565b5b9060005260206000200160405160200161071391906111f3565b60405160208183030381529060405280519060200120141561073957610738816107b7565b5b808061074490611053565b9150506106a5565b50600280548061075f5761075e61120a565b5b60019003818190600052602060002001600061077b919061094a565b90557f9c802db90c311532ca00f26a52c13228886c66fb64a2a927d31612a83849400d816040516107ac9190610b44565b60405180910390a150565b60028054905081106107fe576040517f08c379a00000000000000000000000000000000000000000000000000000000081526004016107f590611285565b60405180910390fd5b60008190505b6001600280549050610816919061112b565b81101561089057600260018261082c91906112a5565b8154811061083d5761083c61109c565b5b906000526020600020016002828154811061085b5761085a61109c565b5b9060005260206000200190805461087190610f9f565b61087c92919061098a565b50808061088890611053565b915050610804565b5060028054806108a3576108a261120a565b5b6001900381819060005260206000200160006108bf919061094a565b905550565b8280546108d090610f9f565b90600052602060002090601f0160209004810192826108f25760008555610939565b82601f1061090b57805160ff1916838001178555610939565b82800160010185558215610939579182015b8281111561093857825182559160200191906001019061091d565b5b5090506109469190610a17565b5090565b50805461095690610f9f565b6000825580601f106109685750610987565b601f0160209004906000526020600020908101906109869190610a17565b5b50565b82805461099690610f9f565b90600052602060002090601f0160209004810192826109b85760008555610a06565b82601f106109c95780548555610a06565b82800160010185558215610a0657600052602060002091601f016020900482015b82811115610a055782548255916001019190600101906109ea565b5b509050610a139190610a17565b5090565b5b80821115610a30576000816000905550600101610a18565b5090565b6000604051905090565b600080fd5b600080fd5b6000819050919050565b610a5b81610a48565b8114610a6657600080fd5b50565b600081359050610a7881610a52565b92915050565b600060208284031215610a9457610a93610a3e565b5b6000610aa284828501610a69565b91505092915050565b600081519050919050565b600082825260208201905092915050565b60005b83811015610ae5578082015181840152602081019050610aca565b83811115610af4576000848401525b50505050565b6000601f19601f8301169050919050565b6000610b1682610aab565b610b208185610ab6565b9350610b30818560208601610ac7565b610b3981610afa565b840191505092915050565b60006020820190508181036000830152610b5e8184610b0b565b905092915050565b600080fd5b600080fd5b7f4e487b7100000000000000000000000000000000000000000000000000000000600052604160045260246000fd5b610ba882610afa565b810181811067ffffffffffffffff82111715610bc757610bc6610b70565b5b80604052505050565b6000610bda610a34565b9050610be68282610b9f565b919050565b600067ffffffffffffffff821115610c0657610c05610b70565b5b610c0f82610afa565b9050602081019050919050565b82818337600083830152505050565b6000610c3e610c3984610beb565b610bd0565b905082815260208101848484011115610c5a57610c59610b6b565b5b610c65848285610c1c565b509392505050565b600082601f830112610c8257610c81610b66565b5b8135610c92848260208601610c2b565b91505092915050565b600080600080600080600060e0888a031215610cba57610cb9610a3e565b5b600088013567ffffffffffffffff811115610cd857610cd7610a43565b5b610ce48a828b01610c6d565b9750506020610cf58a828b01610a69565b9650506040610d068a828b01610a69565b9550506060610d178a828b01610a69565b9450506080610d288a828b01610a69565b93505060a0610d398a828b01610a69565b92505060c0610d4a8a828b01610a69565b91505092959891949750929550565b610d6281610a48565b82525050565b6000602082019050610d7d6000830184610d59565b92915050565b600081519050919050565b600082825260208201905092915050565b6000819050602082019050919050565b600082825260208201905092915050565b6000610dcb82610aab565b610dd58185610daf565b9350610de5818560208601610ac7565b610dee81610afa565b840191505092915050565b6000610e058383610dc0565b905092915050565b6000602082019050919050565b6000610e2582610d83565b610e2f8185610d8e565b935083602082028501610e4185610d9f565b8060005b85811015610e7d5784840389528151610e5e8582610df9565b9450610e6983610e0d565b925060208a01995050600181019050610e45565b50829750879550505050505092915050565b60006020820190508181036000830152610ea98184610e1a565b905092915050565b600060208284031215610ec757610ec6610a3e565b5b600082013567ffffffffffffffff811115610ee557610ee4610a43565b5b610ef184828501610c6d565b91505092915050565b600060e0820190508181036000830152610f14818a610b0b565b9050610f236020830189610d59565b610f306040830188610d59565b610f3d6060830187610d59565b610f4a6080830186610d59565b610f5760a0830185610d59565b610f6460c0830184610d59565b98975050505050505050565b7f4e487b7100000000000000000000000000000000000000000000000000000000600052602260045260246000fd5b60006002820490506001821680610fb757607f821691505b60208210811415610fcb57610fca610f70565b5b50919050565b600081905092915050565b6000610fe782610aab565b610ff18185610fd1565b9350611001818560208601610ac7565b80840191505092915050565b60006110198284610fdc565b915081905092915050565b7f4e487b7100000000000000000000000000000000000000000000000000000000600052601160045260246000fd5b600061105e82610a48565b91507fffffffffffffffffffffffffffffffffffffffffffffffffffffffffffffffff82141561109157611090611024565b5b600182019050919050565b7f4e487b7100000000000000000000000000000000000000000000000000000000600052603260045260246000fd5b60008115159050919050565b6110e0816110cb565b82525050565b60006020820190506110fb60008301846110d7565b92915050565b600061110c82610a48565b915060008214156111205761111f611024565b5b600182039050919050565b600061113682610a48565b915061114183610a48565b92508282101561115457611153611024565b5b828203905092915050565b60008190508160005260206000209050919050565b6000815461118181610f9f565b61118b8186610fd1565b945060018216600081146111a657600181146111b7576111ea565b60ff198316865281860193506111ea565b6111c08561115f565b60005b838110156111e2578154818901526001820191506020810190506111c3565b838801955050505b50505092915050565b60006111ff8284611174565b915081905092915050565b7f4e487b7100000000000000000000000000000000000000000000000000000000600052603160045260246000fd5b7f696e646578206f7574206f6620626f756e640000000000000000000000000000600082015250565b600061126f601283610ab6565b915061127a82611239565b602082019050919050565b6000602082019050818103600083015261129e81611262565b9050919050565b60006112b082610a48565b91506112bb83610a48565b9250827fffffffffffffffffffffffffffffffffffffffffffffffffffffffffffffffff038211156112f0576112ef611024565b5b82820190509291505056fea264697066735822122024c250afc6cecd196206d093ad990c03027b1de9b07ac917450ec097b955d2d564736f6c634300080a003339323365316135372d343030302d346362322d383836392d636233376537376133353764",
  "immutableReferences": {},
  "source": "// SPDX-License-Identifier: MIT\r\npragma solidity ^0.8.10;\r\n\r\ncontract HibernationCalculator {\r\n    uint public animalCount = 0;\r\n\r\n    struct HibernationInformation {\r\n        string uuid;\r\n        uint length;\r\n        uint weight;\r\n        uint result;\r\n        uint min;\r\n        uint avg;\r\n        uint max;\r\n    }\r\n\r\n    event AnimalAdded(\r\n        string uuid,\r\n        uint length,\r\n        uint weight,\r\n        uint result,\r\n        uint min,\r\n        uint avg,\r\n        uint max\r\n    );\r\n\r\n    event AnimalDeleted(\r\n        string uuid\r\n    );\r\n\r\n    event AnimalsCleared(\r\n        bool deleted\r\n    );\r\n\r\n    mapping(string => HibernationInformation) public animals;\r\n\r\n    string[] public animalKeysArray;\r\n\r\n    constructor() {\r\n        initializeContract();\r\n    }\r\n\r\n    function addAnimal(\r\n        string memory uuid,\r\n        uint length,\r\n        uint weight,\r\n        uint result,\r\n        uint min,\r\n        uint avg,\r\n        uint max\r\n    ) public {\r\n        animals[uuid] = HibernationInformation(uuid, length, weight, result, min, avg, max);\r\n        animalKeysArray.push(uuid);\r\n        animalCount ++;\r\n        emit AnimalAdded(uuid, length, weight, result, min, avg, max);\r\n    }\r\n\r\n    function deleteAnimal(string memory uuid) public {\r\n        delete animals[uuid];\r\n        animalCount --;\r\n        \r\n        for (uint i = 0; i < animalKeysArray.length - 1; i++) {\r\n            if (keccak256(abi.encodePacked(animalKeysArray[i])) == keccak256(abi.encodePacked(uuid))) {\r\n                removeKeyFromAnimalKeysArrayByIndex(i);\r\n            }\r\n        }\r\n        animalKeysArray.pop();\r\n\r\n        emit AnimalDeleted(uuid);\r\n    }\r\n\r\n    function clearAnimals() public {\r\n        for (uint i = 0; i < animalKeysArray.length; i++) {\r\n            deleteAnimal(animalKeysArray[i]);\r\n        }\r\n        emit AnimalsCleared(true);\r\n    }\r\n\r\n    function getAnimalUUIDs() public view returns (string[] memory){\r\n        return animalKeysArray;\r\n    }\r\n\r\n    function initializeContract() private {\r\n        addAnimal(\r\n            \"923e1a57-4000-4cb2-8869-cb37e77a357d\",\r\n            12000000000000000000,\r\n            11000000000000000000,\r\n            3,\r\n            257658000000000000000,\r\n            303611000000000000000,\r\n            350494000000000000000\r\n        );\r\n    }\r\n\r\n    function removeKeyFromAnimalKeysArrayByIndex(uint _index) private {\r\n        require(_index < animalKeysArray.length, \"index out of bound\");\r\n\r\n        for (uint i = _index; i < animalKeysArray.length - 1; i++) {\r\n            animalKeysArray[i] = animalKeysArray[i + 1];\r\n        }\r\n        animalKeysArray.pop();\r\n    }\r\n}",
  "sourcePath": "C:\\Users\\Rares Zaharescu\\Documents\\Workspace\\Projects\\hibernator-calculator-mbn-tech-vue\\blockchain\\contracts\\HibernationCalculator.sol",
  "compiler": {
    "name": "solc",
    "version": "0.8.10+commit.fc410830.Emscripten.clang"
  },
  "schemaVersion": "3.4.3",
  "updatedAt": "2021-12-14T13:59:53.340Z",
  "networkType": "ethereum",
  "devdoc": {
    "kind": "dev",
    "methods": {},
    "version": 1
  },
  "userdoc": {
    "kind": "user",
    "methods": {},
    "version": 1
  }
}