{
  "contractName": "HibernationCalculatorV2",
  "abi": [
    {
      "inputs": [],
      "stateMutability": "nonpayable",
      "type": "constructor"
    },
    {
      "anonymous": false,
      "inputs": [
        {
          "indexed": false,
          "internalType": "string",
          "name": "uuid",
          "type": "string"
        },
        {
          "indexed": false,
          "internalType": "uint256",
          "name": "shellLength",
          "type": "uint256"
        },
        {
          "indexed": false,
          "internalType": "uint256",
          "name": "weight",
          "type": "uint256"
        },
        {
          "indexed": false,
          "internalType": "uint256",
          "name": "result",
          "type": "uint256"
        },
        {
          "indexed": false,
          "internalType": "uint256",
          "name": "min",
          "type": "uint256"
        },
        {
          "indexed": false,
          "internalType": "uint256",
          "name": "avg",
          "type": "uint256"
        },
        {
          "indexed": false,
          "internalType": "uint256",
          "name": "max",
          "type": "uint256"
        }
      ],
      "name": "AnimalAdded",
      "type": "event"
    },
    {
      "inputs": [
        {
          "internalType": "string",
          "name": "uuid",
          "type": "string"
        },
        {
          "internalType": "uint256",
          "name": "shellLength",
          "type": "uint256"
        },
        {
          "internalType": "uint256",
          "name": "weight",
          "type": "uint256"
        },
        {
          "internalType": "uint256",
          "name": "result",
          "type": "uint256"
        },
        {
          "internalType": "uint256",
          "name": "min",
          "type": "uint256"
        },
        {
          "internalType": "uint256",
          "name": "avg",
          "type": "uint256"
        },
        {
          "internalType": "uint256",
          "name": "max",
          "type": "uint256"
        }
      ],
      "name": "addAnimal",
      "outputs": [],
      "stateMutability": "nonpayable",
      "type": "function"
    },
    {
      "inputs": [],
      "name": "getAnimalCount",
      "outputs": [
        {
          "internalType": "uint256",
          "name": "",
          "type": "uint256"
        }
      ],
      "stateMutability": "view",
      "type": "function"
    },
    {
      "inputs": [
        {
          "internalType": "string",
          "name": "uuid",
          "type": "string"
        }
      ],
      "name": "getAnimalByUUID",
      "outputs": [
        {
          "components": [
            {
              "internalType": "string",
              "name": "uuid",
              "type": "string"
            },
            {
              "internalType": "uint256",
              "name": "shellLength",
              "type": "uint256"
            },
            {
              "internalType": "uint256",
              "name": "weight",
              "type": "uint256"
            },
            {
              "internalType": "uint256",
              "name": "result",
              "type": "uint256"
            },
            {
              "internalType": "uint256",
              "name": "min",
              "type": "uint256"
            },
            {
              "internalType": "uint256",
              "name": "avg",
              "type": "uint256"
            },
            {
              "internalType": "uint256",
              "name": "max",
              "type": "uint256"
            }
          ],
          "internalType": "struct HibernationCalculatorV2.HibernationInformation",
          "name": "",
          "type": "tuple"
        }
      ],
      "stateMutability": "view",
      "type": "function"
    }
  ],
  "bytecode": "0x60806040523480156200001157600080fd5b50620000226200002860201b60201c565b6200050a565b6200008460405180606001604052806024815260200162000f656024913967a688906bd8b000006798a7d9b8314c00006003680df7b919de9199000068107572f3e6651f800068130014d400d1c300006200008660201b60201c565b565b60006040518060e00160405280898152602001888152602001878152602001868152602001858152602001848152602001838152509050620000cf88826200011e60201b60201c565b7f69972a4399cac0d18db64f54cd79b3baaf30b389ed0baee782ccb90456d026a3888888888888886040516200010c9796959493929190620003c6565b60405180910390a15050505050505050565b6000600201826040516200013391906200048c565b908152602001604051809103902060009054906101000a900460ff16620001d15760008001829080600181540180825580915050600190039060005260206000200160009091909190915090805190602001906200019392919062000257565b506001600060020183604051620001ab91906200048c565b908152602001604051809103902060006101000a81548160ff0219169083151502179055505b80600060010183604051620001e791906200048c565b908152602001604051809103902060008201518160000190805190602001906200021392919062000257565b506020820151816001015560408201518160020155606082015181600301556080820151816004015560a0820151816005015560c082015181600601559050505050565b8280546200026590620004d4565b90600052602060002090601f016020900481019282620002895760008555620002d5565b82601f10620002a457805160ff1916838001178555620002d5565b82800160010185558215620002d5579182015b82811115620002d4578251825591602001919060010190620002b7565b5b509050620002e49190620002e8565b5090565b5b8082111562000303576000816000905550600101620002e9565b5090565b600081519050919050565b600082825260208201905092915050565b60005b838110156200034357808201518184015260208101905062000326565b8381111562000353576000848401525b50505050565b6000601f19601f8301169050919050565b6000620003778262000307565b62000383818562000312565b93506200039581856020860162000323565b620003a08162000359565b840191505092915050565b6000819050919050565b620003c081620003ab565b82525050565b600060e0820190508181036000830152620003e2818a6200036a565b9050620003f36020830189620003b5565b620004026040830188620003b5565b620004116060830187620003b5565b620004206080830186620003b5565b6200042f60a0830185620003b5565b6200043e60c0830184620003b5565b98975050505050505050565b600081905092915050565b6000620004628262000307565b6200046e81856200044a565b93506200048081856020860162000323565b80840191505092915050565b60006200049a828462000455565b915081905092915050565b7f4e487b7100000000000000000000000000000000000000000000000000000000600052602260045260246000fd5b60006002820490506001821680620004ed57607f821691505b60208210811415620005045762000503620004a5565b5b50919050565b610a4b806200051a6000396000f3fe608060405234801561001057600080fd5b50600436106100415760003560e01c806307a5bdb31461004657806327bd616e1461007657806366634a1614610092575b600080fd5b610060600480360381019061005b91906105e5565b6100b0565b60405161006d919061076b565b60405180910390f35b610090600480360381019061008b91906107b9565b6100c8565b005b61009a610156565b6040516100a79190610886565b60405180910390f35b6100b86103ab565b6100c182610165565b9050919050565b60006040518060e00160405280898152602001888152602001878152602001868152602001858152602001848152602001838152509050610109888261026e565b7f69972a4399cac0d18db64f54cd79b3baaf30b389ed0baee782ccb90456d026a38888888888888860405161014497969594939291906108eb565b60405180910390a15050505050505050565b600061016061039c565b905090565b61016d6103ab565b600060010182604051610180919061099d565b90815260200160405180910390206040518060e00160405290816000820180546101a9906109e3565b80601f01602080910402602001604051908101604052809291908181526020018280546101d5906109e3565b80156102225780601f106101f757610100808354040283529160200191610222565b820191906000526020600020905b81548152906001019060200180831161020557829003601f168201915b5050505050815260200160018201548152602001600282015481526020016003820154815260200160048201548152602001600582015481526020016006820154815250509050919050565b600060020182604051610281919061099d565b908152602001604051809103902060009054906101000a900460ff1661031a5760008001829080600181540180825580915050600190039060005260206000200160009091909190915090805190602001906102de9291906103e8565b5060016000600201836040516102f4919061099d565b908152602001604051809103902060006101000a81548160ff0219169083151502179055505b8060006001018360405161032e919061099d565b908152602001604051809103902060008201518160000190805190602001906103589291906103e8565b506020820151816001015560408201518160020155606082015181600301556080820151816004015560a0820151816005015560c082015181600601559050505050565b60008060000180549050905090565b6040518060e00160405280606081526020016000815260200160008152602001600081526020016000815260200160008152602001600081525090565b8280546103f4906109e3565b90600052602060002090601f016020900481019282610416576000855561045d565b82601f1061042f57805160ff191683800117855561045d565b8280016001018555821561045d579182015b8281111561045c578251825591602001919060010190610441565b5b50905061046a919061046e565b5090565b5b8082111561048757600081600090555060010161046f565b5090565b6000604051905090565b600080fd5b600080fd5b600080fd5b600080fd5b6000601f19601f8301169050919050565b7f4e487b7100000000000000000000000000000000000000000000000000000000600052604160045260246000fd5b6104f2826104a9565b810181811067ffffffffffffffff82111715610511576105106104ba565b5b80604052505050565b600061052461048b565b905061053082826104e9565b919050565b600067ffffffffffffffff8211156105505761054f6104ba565b5b610559826104a9565b9050602081019050919050565b82818337600083830152505050565b600061058861058384610535565b61051a565b9050828152602081018484840111156105a4576105a36104a4565b5b6105af848285610566565b509392505050565b600082601f8301126105cc576105cb61049f565b5b81356105dc848260208601610575565b91505092915050565b6000602082840312156105fb576105fa610495565b5b600082013567ffffffffffffffff8111156106195761061861049a565b5b610625848285016105b7565b91505092915050565b600081519050919050565b600082825260208201905092915050565b60005b8381101561066857808201518184015260208101905061064d565b83811115610677576000848401525b50505050565b60006106888261062e565b6106928185610639565b93506106a281856020860161064a565b6106ab816104a9565b840191505092915050565b6000819050919050565b6106c9816106b6565b82525050565b600060e08301600083015184820360008601526106ec828261067d565b915050602083015161070160208601826106c0565b50604083015161071460408601826106c0565b50606083015161072760608601826106c0565b50608083015161073a60808601826106c0565b5060a083015161074d60a08601826106c0565b5060c083015161076060c08601826106c0565b508091505092915050565b6000602082019050818103600083015261078581846106cf565b905092915050565b610796816106b6565b81146107a157600080fd5b50565b6000813590506107b38161078d565b92915050565b600080600080600080600060e0888a0312156107d8576107d7610495565b5b600088013567ffffffffffffffff8111156107f6576107f561049a565b5b6108028a828b016105b7565b97505060206108138a828b016107a4565b96505060406108248a828b016107a4565b95505060606108358a828b016107a4565b94505060806108468a828b016107a4565b93505060a06108578a828b016107a4565b92505060c06108688a828b016107a4565b91505092959891949750929550565b610880816106b6565b82525050565b600060208201905061089b6000830184610877565b92915050565b600082825260208201905092915050565b60006108bd8261062e565b6108c781856108a1565b93506108d781856020860161064a565b6108e0816104a9565b840191505092915050565b600060e0820190508181036000830152610905818a6108b2565b90506109146020830189610877565b6109216040830188610877565b61092e6060830187610877565b61093b6080830186610877565b61094860a0830185610877565b61095560c0830184610877565b98975050505050505050565b600081905092915050565b60006109778261062e565b6109818185610961565b935061099181856020860161064a565b80840191505092915050565b60006109a9828461096c565b915081905092915050565b7f4e487b7100000000000000000000000000000000000000000000000000000000600052602260045260246000fd5b600060028204905060018216806109fb57607f821691505b60208210811415610a0f57610a0e6109b4565b5b5091905056fea26469706673582212209895642c79b30040dff521b1998c46bfcaed02ccd420bb436d30b33fc39d033464736f6c634300080a003339323365316135372d343030302d346362322d383836392d636233376537376133353764",
  "immutableReferences": {},
  "source": "// SPDX-License-Identifier: MIT\r\npragma solidity ^0.8.10;\r\n\r\ncontract HibernationCalculatorV2 {\r\n\r\n    // structs //\r\n     struct HibernationInformation {\r\n        string uuid;\r\n        uint shellLength;\r\n        uint weight;\r\n        uint result;\r\n        uint min;\r\n        uint avg;\r\n        uint max;\r\n    }\r\n\r\n    struct Map {\r\n        string[] keys;\r\n        mapping(string => HibernationInformation) values;\r\n        mapping(string => bool) inserted;\r\n    }\r\n\r\n    // events //\r\n    event AnimalAdded(\r\n        string uuid,\r\n        uint shellLength,\r\n        uint weight,\r\n        uint result,\r\n        uint min,\r\n        uint avg,\r\n        uint max\r\n    );\r\n\r\n    // storage variables //\r\n    Map private animals;\r\n\r\n    constructor() {\r\n        initializeContract();\r\n    }\r\n\r\n    // public methods //\r\n    function addAnimal(\r\n        string memory uuid,\r\n        uint shellLength,\r\n        uint weight,\r\n        uint result,\r\n        uint min,\r\n        uint avg,\r\n        uint max\r\n    ) public {\r\n        HibernationInformation memory hibernationData = HibernationInformation(\r\n            uuid,\r\n            shellLength,\r\n            weight,\r\n            result,\r\n            min,\r\n            avg,\r\n            max\r\n        );\r\n\r\n        add(uuid, hibernationData);\r\n        emit AnimalAdded(uuid, shellLength, weight, result, min, avg, max);\r\n    }\r\n\r\n    function getAnimalCount() public view returns (uint) {\r\n        return getSize();\r\n    }\r\n\r\n    function getAnimalByUUID(string memory uuid) public view returns (HibernationInformation memory) {\r\n        return getAnimal(uuid);\r\n    }\r\n\r\n    // private methods //\r\n    function add(string memory key, HibernationInformation memory hibernationInformation) private {\r\n        if (!animals.inserted[key]) {\r\n            animals.keys.push(key);\r\n            animals.inserted[key] = true;\r\n        }\r\n        animals.values[key] = hibernationInformation;\r\n    }\r\n\r\n    function getSize() private view returns (uint) {\r\n        return animals.keys.length;\r\n    }\r\n\r\n    function getAnimal(string memory key) private view returns (HibernationInformation memory) {\r\n        return animals.values[key];\r\n    }\r\n\r\n    function initializeContract() private {\r\n        addAnimal(\r\n            \"923e1a57-4000-4cb2-8869-cb37e77a357d\",\r\n            12000000000000000000,\r\n            11000000000000000000,\r\n            3,\r\n            257658000000000000000,\r\n            303611000000000000000,\r\n            350494000000000000000\r\n        );\r\n    }\r\n}",
  "sourcePath": "C:\\Users\\Rares Zaharescu\\Documents\\Workspace\\Projects\\hibernator-calculator-mbn-tech-vue\\blockchain\\contracts\\HibernationCalculatorV2.sol",
  "compiler": {
    "name": "solc",
    "version": "0.8.10+commit.fc410830.Emscripten.clang"
  },
  "schemaVersion": "3.4.3",
  "updatedAt": "2021-12-23T16:55:53.362Z",
  "devdoc": {
    "kind": "dev",
    "methods": {},
    "version": 1
  },
  "userdoc": {
    "kind": "user",
    "methods": {},
    "version": 1
  }
}