{
  "contractName": "HibernationCalculator",
  "abi": [
    {
      "inputs": [],
      "stateMutability": "nonpayable",
      "type": "constructor"
    },
    {
      "anonymous": false,
      "inputs": [
        {
          "indexed": false,
          "internalType": "string",
          "name": "uuid",
          "type": "string"
        },
        {
          "indexed": false,
          "internalType": "uint256",
          "name": "shellLength",
          "type": "uint256"
        },
        {
          "indexed": false,
          "internalType": "uint256",
          "name": "weight",
          "type": "uint256"
        },
        {
          "indexed": false,
          "internalType": "uint256",
          "name": "result",
          "type": "uint256"
        },
        {
          "indexed": false,
          "internalType": "uint256",
          "name": "min",
          "type": "uint256"
        },
        {
          "indexed": false,
          "internalType": "uint256",
          "name": "avg",
          "type": "uint256"
        },
        {
          "indexed": false,
          "internalType": "uint256",
          "name": "max",
          "type": "uint256"
        }
      ],
      "name": "AnimalAdded",
      "type": "event"
    },
    {
      "anonymous": false,
      "inputs": [
        {
          "indexed": false,
          "internalType": "string",
          "name": "uuid",
          "type": "string"
        },
        {
          "indexed": false,
          "internalType": "bool",
          "name": "deleted",
          "type": "bool"
        }
      ],
      "name": "AnimalDeleted",
      "type": "event"
    },
    {
      "anonymous": false,
      "inputs": [
        {
          "indexed": false,
          "internalType": "bool",
          "name": "deleted",
          "type": "bool"
        }
      ],
      "name": "AnimalsCleared",
      "type": "event"
    },
    {
      "inputs": [],
      "name": "animalCount",
      "outputs": [
        {
          "internalType": "uint256",
          "name": "",
          "type": "uint256"
        }
      ],
      "stateMutability": "view",
      "type": "function"
    },
    {
      "inputs": [
        {
          "internalType": "string",
          "name": "uuid",
          "type": "string"
        },
        {
          "internalType": "uint256",
          "name": "shellLength",
          "type": "uint256"
        },
        {
          "internalType": "uint256",
          "name": "weight",
          "type": "uint256"
        },
        {
          "internalType": "uint256",
          "name": "result",
          "type": "uint256"
        },
        {
          "internalType": "uint256",
          "name": "min",
          "type": "uint256"
        },
        {
          "internalType": "uint256",
          "name": "avg",
          "type": "uint256"
        },
        {
          "internalType": "uint256",
          "name": "max",
          "type": "uint256"
        }
      ],
      "name": "addAnimal",
      "outputs": [],
      "stateMutability": "nonpayable",
      "type": "function"
    },
    {
      "inputs": [
        {
          "internalType": "string",
          "name": "uuid",
          "type": "string"
        }
      ],
      "name": "deleteAnimalByUUID",
      "outputs": [],
      "stateMutability": "nonpayable",
      "type": "function"
    },
    {
      "inputs": [],
      "name": "clearAnimals",
      "outputs": [],
      "stateMutability": "nonpayable",
      "type": "function"
    },
    {
      "inputs": [],
      "name": "getAnimals",
      "outputs": [
        {
          "components": [
            {
              "internalType": "string",
              "name": "uuid",
              "type": "string"
            },
            {
              "internalType": "uint256",
              "name": "shellLength",
              "type": "uint256"
            },
            {
              "internalType": "uint256",
              "name": "weight",
              "type": "uint256"
            },
            {
              "internalType": "uint256",
              "name": "result",
              "type": "uint256"
            },
            {
              "internalType": "uint256",
              "name": "min",
              "type": "uint256"
            },
            {
              "internalType": "uint256",
              "name": "avg",
              "type": "uint256"
            },
            {
              "internalType": "uint256",
              "name": "max",
              "type": "uint256"
            }
          ],
          "internalType": "struct HibernationCalculator.HibernationInformation[]",
          "name": "",
          "type": "tuple[]"
        }
      ],
      "stateMutability": "view",
      "type": "function"
    },
    {
      "inputs": [],
      "name": "getAnimalUUIDs",
      "outputs": [
        {
          "internalType": "string[]",
          "name": "",
          "type": "string[]"
        }
      ],
      "stateMutability": "view",
      "type": "function"
    },
    {
      "inputs": [],
      "name": "getAnimalCount",
      "outputs": [
        {
          "internalType": "uint256",
          "name": "",
          "type": "uint256"
        }
      ],
      "stateMutability": "view",
      "type": "function"
    },
    {
      "inputs": [
        {
          "internalType": "string",
          "name": "uuid",
          "type": "string"
        }
      ],
      "name": "getAnimalByUUID",
      "outputs": [
        {
          "components": [
            {
              "internalType": "string",
              "name": "uuid",
              "type": "string"
            },
            {
              "internalType": "uint256",
              "name": "shellLength",
              "type": "uint256"
            },
            {
              "internalType": "uint256",
              "name": "weight",
              "type": "uint256"
            },
            {
              "internalType": "uint256",
              "name": "result",
              "type": "uint256"
            },
            {
              "internalType": "uint256",
              "name": "min",
              "type": "uint256"
            },
            {
              "internalType": "uint256",
              "name": "avg",
              "type": "uint256"
            },
            {
              "internalType": "uint256",
              "name": "max",
              "type": "uint256"
            }
          ],
          "internalType": "struct HibernationCalculator.HibernationInformation",
          "name": "",
          "type": "tuple"
        }
      ],
      "stateMutability": "view",
      "type": "function"
    }
  ],
  "bytecode": "0x6080604052600080553480156200001557600080fd5b50620000266200002c60201b60201c565b620005c5565b6200008860405180606001604052806024815260200162001c0a6024913967a688906bd8b000006798a7d9b8314c00006003680df7b919de9199000068107572f3e6651f800068130014d400d1c300006200008a60201b60201c565b565b60006040518060e00160405280898152602001888152602001878152602001868152602001858152602001848152602001838152509050620000d388826200012260201b60201c565b7f69972a4399cac0d18db64f54cd79b3baaf30b389ed0baee782ccb90456d026a38888888888888860405162000110979695949392919062000481565b60405180910390a15050505050505050565b60016003018260405162000137919062000547565b908152602001604051809103902060009054906101000a900460ff1615620001e0578060018001836040516200016e919062000547565b908152602001604051809103902060008201518160000190805190602001906200019a92919062000312565b506020820151816001015560408201518160020155606082015181600301556080820151816004015560a0820151816005015560c082015181600601559050506200030e565b60018060030183604051620001f6919062000547565b908152602001604051809103902060006101000a81548160ff02191690831515021790555080600180018360405162000230919062000547565b908152602001604051809103902060008201518160000190805190602001906200025c92919062000312565b506020820151816001015560408201518160020155606082015181600301556080820151816004015560a0820151816005015560c08201518160060155905050600160000180549050600160020183604051620002ba919062000547565b9081526020016040518091039020819055506001600001829080600181540180825580915050600190039060005260206000200160009091909190915090805190602001906200030c92919062000312565b505b5050565b82805462000320906200058f565b90600052602060002090601f01602090048101928262000344576000855562000390565b82601f106200035f57805160ff191683800117855562000390565b8280016001018555821562000390579182015b828111156200038f57825182559160200191906001019062000372565b5b5090506200039f9190620003a3565b5090565b5b80821115620003be576000816000905550600101620003a4565b5090565b600081519050919050565b600082825260208201905092915050565b60005b83811015620003fe578082015181840152602081019050620003e1565b838111156200040e576000848401525b50505050565b6000601f19601f8301169050919050565b60006200043282620003c2565b6200043e8185620003cd565b935062000450818560208601620003de565b6200045b8162000414565b840191505092915050565b6000819050919050565b6200047b8162000466565b82525050565b600060e08201905081810360008301526200049d818a62000425565b9050620004ae602083018962000470565b620004bd604083018862000470565b620004cc606083018762000470565b620004db608083018662000470565b620004ea60a083018562000470565b620004f960c083018462000470565b98975050505050505050565b600081905092915050565b60006200051d82620003c2565b62000529818562000505565b93506200053b818560208601620003de565b80840191505092915050565b600062000555828462000510565b915081905092915050565b7f4e487b7100000000000000000000000000000000000000000000000000000000600052602260045260246000fd5b60006002820490506001821680620005a857607f821691505b60208210811415620005bf57620005be62000560565b5b50919050565b61163580620005d56000396000f3fe608060405234801561001057600080fd5b50600436106100885760003560e01c806356e915c91161005b57806356e915c91461011557806366634a16146101335780637acdde6d14610151578063bd3d17af1461015b57610088565b806307a5bdb31461008d57806327bd616e146100bd57806343ccf5b2146100d95780634c1d0af2146100f7575b600080fd5b6100a760048036038101906100a29190610dfb565b610177565b6040516100b49190610f81565b60405180910390f35b6100d760048036038101906100d29190610fcf565b61018f565b005b6100e161021d565b6040516100ee919061109c565b60405180910390f35b6100ff610223565b60405161010c9190611179565b60405180910390f35b61011d6102ff565b60405161012a91906112f9565b60405180910390f35b61013b610465565b604051610148919061109c565b60405180910390f35b610159610474565b005b61017560048036038101906101709190610dfb565b6104e5565b005b61017f610b81565b610188826104f1565b9050919050565b60006040518060e001604052808981526020018881526020018781526020018681526020018581526020018481526020018381525090506101d088826105f9565b7f69972a4399cac0d18db64f54cd79b3baaf30b389ed0baee782ccb90456d026a38888888888888860405161020b9796959493929190611365565b60405180910390a15050505050505050565b60005481565b60606001600001805480602002602001604051908101604052809291908181526020016000905b828210156102f65783829060005260206000200180546102699061140a565b80601f01602080910402602001604051908101604052809291908181526020018280546102959061140a565b80156102e25780601f106102b7576101008083540402835291602001916102e2565b820191906000526020600020905b8154815290600101906020018083116102c557829003601f168201915b50505050508152602001906001019061024a565b50505050905090565b6060600060016000018054905067ffffffffffffffff81111561032557610324610cd0565b5b60405190808252806020026020018201604052801561035e57816020015b61034b610b81565b8152602001906001900390816103435790505b50905060005b60016000018054905081101561045d576000610428600160000183815481106103905761038f61143c565b5b9060005260206000200180546103a59061140a565b80601f01602080910402602001604051908101604052809291908181526020018280546103d19061140a565b801561041e5780601f106103f35761010080835404028352916020019161041e565b820191906000526020600020905b81548152906001019060200180831161040157829003601f168201915b50505050506104f1565b90508083838151811061043e5761043d61143c565b5b60200260200101819052505080806104559061149a565b915050610364565b508091505090565b600061046f6107d7565b905090565b60005b61047f6107d7565b8110156104aa57610497610492826107e7565b61089a565b80806104a29061149a565b915050610477565b507f3027fa5f89b510077bccd0c31dde078d30369edaeeca6c93c24d6758cfb7fc0f60016040516104db91906114fe565b60405180910390a1565b6104ee8161089a565b50565b6104f9610b81565b600180018260405161050b9190611555565b90815260200160405180910390206040518060e00160405290816000820180546105349061140a565b80601f01602080910402602001604051908101604052809291908181526020018280546105609061140a565b80156105ad5780601f10610582576101008083540402835291602001916105ad565b820191906000526020600020905b81548152906001019060200180831161059057829003601f168201915b5050505050815260200160018201548152602001600282015481526020016003820154815260200160048201548152602001600582015481526020016006820154815250509050919050565b60016003018260405161060c9190611555565b908152602001604051809103902060009054906101000a900460ff16156106af578060018001836040516106409190611555565b9081526020016040518091039020600082015181600001908051906020019061066a929190610bbe565b506020820151816001015560408201518160020155606082015181600301556080820151816004015560a0820151816005015560c082015181600601559050506107d3565b600180600301836040516106c39190611555565b908152602001604051809103902060006101000a81548160ff0219169083151502179055508060018001836040516106fb9190611555565b90815260200160405180910390206000820151816000019080519060200190610725929190610bbe565b506020820151816001015560408201518160020155606082015181600301556080820151816004015560a0820151816005015560c082015181600601559050506001600001805490506001600201836040516107819190611555565b9081526020016040518091039020819055506001600001829080600181540180825580915050600190039060005260206000200160009091909190915090805190602001906107d1929190610bbe565b505b5050565b6000600160000180549050905090565b606060016000018281548110610800576107ff61143c565b5b9060005260206000200180546108159061140a565b80601f01602080910402602001604051908101604052809291908181526020018280546108419061140a565b801561088e5780601f106108635761010080835404028352916020019161088e565b820191906000526020600020905b81548152906001019060200180831161087157829003601f168201915b50505050509050919050565b6001600301816040516108ad9190611555565b908152602001604051809103902060009054906101000a900460ff1661090c577f12aab090ce41e0d01aa3b62d0213076f4df2da9c040f57e69924f3ccdc8ff2fb8160006040516108ff92919061156c565b60405180910390a1610b7e565b60016003018160405161091f9190611555565b908152602001604051809103902060006101000a81549060ff0219169055600180018160405161094f9190611555565b90815260200160405180910390206000808201600061096e9190610c44565b600182016000905560028201600090556003820160009055600482016000905560058201600090556006820160009055505060006001600201826040516109b59190611555565b90815260200160405180910390205490506000600180600001805490506109dc919061159c565b90506000600160000182815481106109f7576109f661143c565b5b906000526020600020018054610a0c9061140a565b80601f0160208091040260200160405190810160405280929190818152602001828054610a389061140a565b8015610a855780601f10610a5a57610100808354040283529160200191610a85565b820191906000526020600020905b815481529060010190602001808311610a6857829003601f168201915b5050505050905082600160020182604051610aa09190611555565b908152602001604051809103902081905550600160020184604051610ac59190611555565b9081526020016040518091039020600090558060016000018481548110610aef57610aee61143c565b5b906000526020600020019080519060200190610b0c929190610bbe565b506001600001805480610b2257610b216115d0565b5b600190038181906000526020600020016000610b3e9190610c44565b90557f12aab090ce41e0d01aa3b62d0213076f4df2da9c040f57e69924f3ccdc8ff2fb846001604051610b7292919061156c565b60405180910390a15050505b50565b6040518060e00160405280606081526020016000815260200160008152602001600081526020016000815260200160008152602001600081525090565b828054610bca9061140a565b90600052602060002090601f016020900481019282610bec5760008555610c33565b82601f10610c0557805160ff1916838001178555610c33565b82800160010185558215610c33579182015b82811115610c32578251825591602001919060010190610c17565b5b509050610c409190610c84565b5090565b508054610c509061140a565b6000825580601f10610c625750610c81565b601f016020900490600052602060002090810190610c809190610c84565b5b50565b5b80821115610c9d576000816000905550600101610c85565b5090565b6000604051905090565b600080fd5b600080fd5b600080fd5b600080fd5b6000601f19601f8301169050919050565b7f4e487b7100000000000000000000000000000000000000000000000000000000600052604160045260246000fd5b610d0882610cbf565b810181811067ffffffffffffffff82111715610d2757610d26610cd0565b5b80604052505050565b6000610d3a610ca1565b9050610d468282610cff565b919050565b600067ffffffffffffffff821115610d6657610d65610cd0565b5b610d6f82610cbf565b9050602081019050919050565b82818337600083830152505050565b6000610d9e610d9984610d4b565b610d30565b905082815260208101848484011115610dba57610db9610cba565b5b610dc5848285610d7c565b509392505050565b600082601f830112610de257610de1610cb5565b5b8135610df2848260208601610d8b565b91505092915050565b600060208284031215610e1157610e10610cab565b5b600082013567ffffffffffffffff811115610e2f57610e2e610cb0565b5b610e3b84828501610dcd565b91505092915050565b600081519050919050565b600082825260208201905092915050565b60005b83811015610e7e578082015181840152602081019050610e63565b83811115610e8d576000848401525b50505050565b6000610e9e82610e44565b610ea88185610e4f565b9350610eb8818560208601610e60565b610ec181610cbf565b840191505092915050565b6000819050919050565b610edf81610ecc565b82525050565b600060e0830160008301518482036000860152610f028282610e93565b9150506020830151610f176020860182610ed6565b506040830151610f2a6040860182610ed6565b506060830151610f3d6060860182610ed6565b506080830151610f506080860182610ed6565b5060a0830151610f6360a0860182610ed6565b5060c0830151610f7660c0860182610ed6565b508091505092915050565b60006020820190508181036000830152610f9b8184610ee5565b905092915050565b610fac81610ecc565b8114610fb757600080fd5b50565b600081359050610fc981610fa3565b92915050565b600080600080600080600060e0888a031215610fee57610fed610cab565b5b600088013567ffffffffffffffff81111561100c5761100b610cb0565b5b6110188a828b01610dcd565b97505060206110298a828b01610fba565b965050604061103a8a828b01610fba565b955050606061104b8a828b01610fba565b945050608061105c8a828b01610fba565b93505060a061106d8a828b01610fba565b92505060c061107e8a828b01610fba565b91505092959891949750929550565b61109681610ecc565b82525050565b60006020820190506110b1600083018461108d565b92915050565b600081519050919050565b600082825260208201905092915050565b6000819050602082019050919050565b60006110ef8383610e93565b905092915050565b6000602082019050919050565b600061110f826110b7565b61111981856110c2565b93508360208202850161112b856110d3565b8060005b85811015611167578484038952815161114885826110e3565b9450611153836110f7565b925060208a0199505060018101905061112f565b50829750879550505050505092915050565b600060208201905081810360008301526111938184611104565b905092915050565b600081519050919050565b600082825260208201905092915050565b6000819050602082019050919050565b600060e08301600083015184820360008601526111e48282610e93565b91505060208301516111f96020860182610ed6565b50604083015161120c6040860182610ed6565b50606083015161121f6060860182610ed6565b5060808301516112326080860182610ed6565b5060a083015161124560a0860182610ed6565b5060c083015161125860c0860182610ed6565b508091505092915050565b600061126f83836111c7565b905092915050565b6000602082019050919050565b600061128f8261119b565b61129981856111a6565b9350836020820285016112ab856111b7565b8060005b858110156112e757848403895281516112c88582611263565b94506112d383611277565b925060208a019950506001810190506112af565b50829750879550505050505092915050565b600060208201905081810360008301526113138184611284565b905092915050565b600082825260208201905092915050565b600061133782610e44565b611341818561131b565b9350611351818560208601610e60565b61135a81610cbf565b840191505092915050565b600060e082019050818103600083015261137f818a61132c565b905061138e602083018961108d565b61139b604083018861108d565b6113a8606083018761108d565b6113b5608083018661108d565b6113c260a083018561108d565b6113cf60c083018461108d565b98975050505050505050565b7f4e487b7100000000000000000000000000000000000000000000000000000000600052602260045260246000fd5b6000600282049050600182168061142257607f821691505b60208210811415611436576114356113db565b5b50919050565b7f4e487b7100000000000000000000000000000000000000000000000000000000600052603260045260246000fd5b7f4e487b7100000000000000000000000000000000000000000000000000000000600052601160045260246000fd5b60006114a582610ecc565b91507fffffffffffffffffffffffffffffffffffffffffffffffffffffffffffffffff8214156114d8576114d761146b565b5b600182019050919050565b60008115159050919050565b6114f8816114e3565b82525050565b600060208201905061151360008301846114ef565b92915050565b600081905092915050565b600061152f82610e44565b6115398185611519565b9350611549818560208601610e60565b80840191505092915050565b60006115618284611524565b915081905092915050565b60006040820190508181036000830152611586818561132c565b905061159560208301846114ef565b9392505050565b60006115a782610ecc565b91506115b283610ecc565b9250828210156115c5576115c461146b565b5b828203905092915050565b7f4e487b7100000000000000000000000000000000000000000000000000000000600052603160045260246000fdfea26469706673582212206a7fbb6f23545a7593b8d490aa7e5e86fac7112096b10c7fb8e334b9050f37e664736f6c634300080a003339323365316135372d343030302d346362322d383836392d636233376537376133353764",
  "immutableReferences": {},
  "source": "// SPDX-License-Identifier: MIT\r\npragma solidity ^0.8.10;\r\n\r\ncontract HibernationCalculator {\r\n    \r\n    uint public animalCount = 0;\r\n\r\n    struct HibernationInformation {\r\n        string uuid;\r\n        uint shellLength;\r\n        uint weight;\r\n        uint result;\r\n        uint min;\r\n        uint avg;\r\n        uint max;\r\n    }\r\n\r\n    struct Map {\r\n        string[] keys;\r\n        mapping(string => HibernationInformation) values;\r\n        mapping(string => uint) indexOf;\r\n        mapping(string => bool) inserted;\r\n    }\r\n\r\n    event AnimalAdded(\r\n        string uuid,\r\n        uint shellLength,\r\n        uint weight,\r\n        uint result,\r\n        uint min,\r\n        uint avg,\r\n        uint max\r\n    );\r\n\r\n    event AnimalDeleted(\r\n        string uuid,\r\n        bool deleted\r\n    );\r\n\r\n    event AnimalsCleared(\r\n        bool deleted\r\n    );\r\n\r\n    //mapping(string => HibernationInformation) public animals;\r\n\r\n    Map private animals;\r\n\r\n    //string[] public animalKeysArray;\r\n\r\n    constructor() {\r\n        initializeContract();\r\n    }\r\n\r\n    function addAnimal(\r\n        string memory uuid,\r\n        uint shellLength,\r\n        uint weight,\r\n        uint result,\r\n        uint min,\r\n        uint avg,\r\n        uint max\r\n    ) public {\r\n        HibernationInformation memory hibernationData = HibernationInformation(\r\n            uuid,\r\n            shellLength,\r\n            weight,\r\n            result,\r\n            min,\r\n            avg,\r\n            max\r\n        );\r\n\r\n        set(uuid, hibernationData);\r\n        emit AnimalAdded(uuid, shellLength, weight, result, min, avg, max);\r\n    }\r\n\r\n    function deleteAnimalByUUID(string memory uuid) public {\r\n        remove(uuid);\r\n    }\r\n\r\n    function clearAnimals() public {\r\n        for (uint i = 0; i < size(); i++) {\r\n            remove(getKeyAtIndex(i));\r\n        }\r\n        emit AnimalsCleared(true);\r\n    }\r\n\r\n    function getAnimals() public view returns (HibernationInformation[] memory) {\r\n        HibernationInformation[] memory animalArray = new HibernationInformation[](animals.keys.length);\r\n\r\n        for (uint i = 0; i < animals.keys.length; i++) {\r\n            HibernationInformation memory animal = get(animals.keys[i]);\r\n            animalArray[i] = animal;\r\n        }\r\n        return animalArray;\r\n    }\r\n\r\n    function getAnimalUUIDs() public view returns (string[] memory) {\r\n        return animals.keys;\r\n    }\r\n\r\n    function getAnimalCount() public view returns (uint) {\r\n        return size();\r\n    }\r\n\r\n    function getAnimalByUUID(string memory uuid) public view returns (HibernationInformation memory) {\r\n        return get(uuid);\r\n    }\r\n\r\n    function get(string memory key) private view returns (HibernationInformation memory) {\r\n        return animals.values[key];\r\n    }\r\n\r\n    function getKeyAtIndex(uint index) private view returns (string memory) {\r\n        return animals.keys[index];\r\n    }\r\n\r\n    function size() private view returns (uint) {\r\n        return animals.keys.length;\r\n    }\r\n\r\n    function set(string memory key, HibernationInformation memory val) private {\r\n        if (animals.inserted[key]) {\r\n            animals.values[key] = val;\r\n        } else {\r\n            animals.inserted[key] = true;\r\n            animals.values[key] = val;\r\n            animals.indexOf[key] = animals.keys.length;\r\n            animals.keys.push(key);\r\n        }\r\n    }\r\n\r\n    function remove(string memory key) private {\r\n        if (!animals.inserted[key]) {\r\n            emit AnimalDeleted(key, false);\r\n            return;\r\n        }\r\n\r\n        delete animals.inserted[key];\r\n        delete animals.values[key];\r\n\r\n        uint index = animals.indexOf[key];\r\n        uint lastIndex = animals.keys.length - 1;\r\n        string memory lastKey = animals.keys[lastIndex];\r\n\r\n        animals.indexOf[lastKey] = index;\r\n        delete animals.indexOf[key];\r\n\r\n        animals.keys[index] = lastKey;\r\n        animals.keys.pop();\r\n\r\n        emit AnimalDeleted(key, true);\r\n    }\r\n\r\n    function initializeContract() private {\r\n        addAnimal(\r\n            \"923e1a57-4000-4cb2-8869-cb37e77a357d\",\r\n            12000000000000000000,\r\n            11000000000000000000,\r\n            3,\r\n            257658000000000000000,\r\n            303611000000000000000,\r\n            350494000000000000000\r\n        );\r\n    }\r\n}",
  "sourcePath": "C:\\Users\\Rares Zaharescu\\Documents\\Workspace\\Projects\\hibernator-calculator-mbn-tech-vue\\blockchain\\contracts\\HibernationCalculator.sol",
  "compiler": {
    "name": "solc",
    "version": "0.8.10+commit.fc410830.Emscripten.clang"
  },
  "schemaVersion": "3.4.3",
  "updatedAt": "2021-12-23T16:55:53.356Z",
  "devdoc": {
    "kind": "dev",
    "methods": {},
    "version": 1
  },
  "userdoc": {
    "kind": "user",
    "methods": {},
    "version": 1
  }
}